:02000002B0004C
:1040000000400B00147C0B00000006000D000502B0
:084010000401A30F00000000F1
:04401800B8750B006C
:1040200009480A49884208B505D0094A824202D0A7
:10403000121A03F017F90748074A0021121A03F071
:1040400039F9014808BD00BFACE50320787B0B00BF
:1040500020E6032020E60320EDE7032070B5074E9D
:10406000074C02F0FBFDA41BA4080025AC4200D1C4
:1040700070BD56F8043B98470135F7E7247B0B00E9
:104080004C7B0B0000F0E0B908B500F001FABDE888
:10409000084002F09BBD00F063BF00F061BF00F07C
:1040A00067BF000008B5034A03490C2000F0A4FED6
:1040B000FEE700BFB94B0B00CC750B000078B0FADF
:1040C00080F04009704701230370704708B500F085
:1040D0009DF8BDE80840014900F062B9E1750B00A8
:1040E00010B5044B03600446406808B100F044FD7D
:1040F000204610BD30770B0010B50446FFF7F0FFE7
:1041000020465821FFF7CBFF204610BD10B5034BCA
:104110000360044600F0E2FA204610BD14760B005E
:1041200010B50446FFF7F2FF20461021FFF7B7FF56
:10413000204610BD0EB400B58CB00DAA4FF0200C77
:1041400052F8041B0392CDE900120023016804AA6F
:104150001E20CDE904C300F057FE0CB05DF804EB5F
:1041600003B0704710B5036804460BB900F0FCFCBF
:104170002068BDE8104000F007BD38B504460430A3
:10418000FFF7F0FF206A616A0368DD68D4E9022363
:10419000A8476068BDE8384000F0FEBC38B504466A
:1041A0000430FFF7DFFF206A616A03689D68D4E985
:1041B0000223A847A2682368D1885B6920469847F4
:1041C00018B9236820469B699847606800F0E4FCB2
:1041D000012038BD00F12801816009494FF0300C01
:1041E000C0E903C1012181824FF47A71C16105499F
:1041F0000022C0E9081242608261034A02607047EF
:10420000739EA92024E6032030760B0010B5064CDF
:1042100023683BB95820FFF73EFF034608B1FFF77C
:10422000D9FF2360206810BD20E6032010B5006A86
:1042300000F06AFAFFF7EAFF0368BDE810405B6828
:10424000184710B5FFF7E2FF0368BDE81040DB68D0
:104250000021184738B504460430FFF783FFE368B0
:104260006068043B0F2B86BFA3681D69002500F022
:1042700093FC284638BD38B5044604300D46FFF798
:1042800071FFE368043B0F2B0DD9A3681A699542AF
:1042900009D01D612046A56800F0B6FBA860236820
:1042A00020461B6998476068BDE8384000F074BC40
:1042B00038B504460430FFF755FFE3686068013BFA
:1042C000132B86BFA3681D7D002500F065FC2846E2
:1042D00038BD38B5044604300D46FFF743FFE368A8
:1042E000013B132B0DD9A3681A7DAA4209D01D7575
:1042F0002046A56800F088FBA860236820461B695B
:1043000098476068BDE8384000F046BC00000000F7
:1043100010B504462DED028B0430FFF723FFE36850
:10432000083B172B0CD9A36893ED068B606800F04F
:1043300033FCB0EE480AF0EE680ABDEC028B10BD0B
:104340009FED018BF2E700BF0000000000000000BD
:10435000F8B50446043057EC106BFFF703FFE36831
:10436000083B172B12D9A5683046D5E906233946F4
:1043700002F038FF50B9C5E906672046A56800F08D
:1043800043FBA860236820461B6998476068BDE826
:10439000F84000F001BC0B460A22202100F04CBB83
:1043A00030B587B000F148030493D0E91045CDE95A
:1043B000024590F83C300093836B03480A4603495A
:1043C000FFF7B8FE07B030BDB0E60320F6750B006E
:1043D00010B502F08DFC054C014600234FF400425D
:1043E000204600F087F9024B236010BD24E603202D
:1043F00014760B007047006A0368DB6818470000FA
:104400000A4B10B50446036001F0D8FA214601F0CA
:1044100010FD02F093FB02F083FB2046044B40F8B2
:10442000043B01F0A1FB204610BD00BF98760B00B5
:1044300080760B0010B50446FFF7E2FF20462421EA
:10444000FFF72DFE204610BD70B5002000F0C4FB24
:1044500042F210750446002000F0BEFB001B61F123
:104460000001A84271F1000307D202F067FB02F0DD
:104470005AFB10B900F004FDEDE702F05FFB02F01B
:1044800052FBFFF7C3FE0368BDE870401B68184786
:1044900010B5294C00F098FB2368C01A42F20F7344
:1044A00098423ED900F090FB2060FFF7AFFE234911
:1044B000FFF776FFFFF7AAFE0446FFF7A7FEFFF718
:1044C000C9FE411C2046FFF7D6FEFFF79FFE0446BB
:1044D000FFF79CFEFFF7ECFE80F00100C1B2204622
:1044E000FFF7F7FEFFF792FE0446FFF78FFEFFF798
:1044F0000FFF0FA3D3E9002351EC100B02F064FC73
:1045000041EC100B2046FFF723FFFFF77FFE0C491D
:10451000FFF741FFFFF77AFE0A49FFF741FFFFF778
:10452000D5FDFFF773FEBDE81040FFF78ABE00BF60
:104530009A9999999999B93F40E6032054760B00CE
:1045400062760B006B760B0070B5D0E90053142631
:10455000044606FB0356AE4204D0284602F084F916
:104560001435F8E7206800F003FD204670BD88424E
:10457000F8B504460D46164616D9904215D2A2F15A
:104580001406751AA1F114072C44B7421CD02CB1A3
:104590003146204602F0D0F9337C2374304602F0D5
:1045A00063F9143E143CF0E70ED0B5420CD02CB1A8
:1045B0002946204602F0C0F92B7C2374284602F0DD
:1045C00053F914351434F0E7F8BD2DE9F041002318
:1045D000C0E9003383604F689F4204460E4623DDE6
:1045E0004FF0140808FB07F000F0BAFC0546D8B1FC
:1045F000D4E9001208FB0212FFF7B9FF206800F0AF
:10460000B7FC2560A760D6E9007308FB0378B845BE
:1046100008D03946284602F0A9F93B7C2B741437A0
:104620001435F4E7736863602046BDE8F08100004C
:1046300070B500218CB0012000F006FC214B224A0D
:104640009A600024C3E90044032000F0F5FBCDE9A3
:104650000044029402F072FA1C4C0546694603A815
:10466000FFF7B3FF264603A906A8FFF7AEFF184BD6
:1046700046F8043B06A909A8FFF7A7FF09AA0121EC
:10468000304601F0B9FC09A8FFF75EFF06A8FFF766
:104690005BFF104B2360256203A8FFF755FF0E4B0D
:1046A000236002F04BFA4FF4165102F035FA01F094
:1046B00085F9214601F076FB6846FFF745FF0CB00F
:1046C00070BD00BF34E603200000FFFF44E6032076
:1046D00080760B00A0780B0098760B00704710B521
:1046E00010210446FFF7DBFC204610BD0368C9B269
:1046F0009B68184730B5034DC0E90223C0E900515B
:1047000030BD00BFB0760B00406800F05FBD10B553
:104710000446006800F09DFD204610BD2DE9F743DA
:104720000446406801900D4616461F4600F088FD7D
:10473000A7B1E168606841F0500100F07AFD290AF4
:104740006068FFF7D3FF29466068FFF7CFFF606816
:10475000002100F071FD48B1002400E0012401A80F
:10476000FFF7D5FF204603B0BDE8F083202F217B63
:104770006068B84628BF4FF020080123424641F048
:10478000500100F040FD02F0B3FA03681B6998473E
:104790004045E1DB06EB080902F0AAFA03685B6911
:1047A000984706F8010B4E45F6D14544A7EB08079C
:1047B000BEE72DE9F74F0446406801900E4690464B
:1047C0001D4600F03DFD4FF00109B9F1000F2AD060
:1047D0004DB3E168606841F0500100F02AFD310AF4
:1047E0006068FFF783FF60683146FFF77FFFA5F140
:1047F0001E0A4746A6EB080B606817F8011B036802
:10480000013D9B68984755450BEB0706B84601D01C
:10481000002DF1D16068012100F00EFD0028D7D0F5
:104820004FF00009D1E701A8FFF771FF484603B038
:10483000BDE8F08F2DE9F0438BB00E46154680465B
:10484000406801901C4600F0FBFCAE4229D2264491
:1048500025448CB11E2C2746D8F8003028BF1E27CF
:10486000F61BD3F8089002AA3B4631464046ED1BA2
:10487000C84748B9002400E0012401A8FFF747FF1A
:1048800020460BB0BDE8F083D8F8003002AAD3F878
:104890000C9029463B464046C8470028EAD0E41B16
:1048A000D7E7E9D9002CE7D0D8F800301E2C2746EE
:1048B00028BF1E27D3F8089002AA3B46314640463F
:1048C000C8470028D6D0D8F8003002AAD3F80C90F8
:1048D00029463B464046C8470028CBD03E443D448D
:1048E000E41BDFE7704703685B68184710B583690E
:1048F000044633B131B1236820469B6898470023B2
:10490000A36110BD00F060F9A369C01AE369984281
:10491000F1D2F6E710B5C36904461BB100F054F9B3
:10492000A06110BD0368BDE810409B68184700F007
:1049300033B90EB400B58CB00DAA4FF0200C52F86C
:10494000041B0392CDE900120023016804AA012090
:10495000CDE904C300F058FA0CB05DF804EB03B0E5
:10496000704710B504460430FFF7FCFB2368E1688C
:104970005B692046984718B9236820469B69984789
:104980006068FFF7D4FF012010BD0000F0B521F0F2
:104990000304184F184E194D0444A0420CD050F88F
:1049A000043B7B434FEA734373435A404FEAF2425E
:1049B00002EB82022A44F0E701F0030404440023DE
:1049C000A04204D014F8015D45EA0323F8E7094842
:1049D000434309484FEA73434A4058435040084B09
:1049E00080EA10405843074B80EA5030584380EA31
:1049F0001040F0BD512D9ECC9335871B646B54E65F
:104A00006BCAEB8535AEB2C2F8B504460430FFF789
:104A1000A9FBA36800229F689A60A668054AF188EE
:104A20003046FFF7B3FFB76005466068FFF77FFFCA
:104A30002846F8BD3F2A1C852DE9F0410446043084
:104A400090460D461F46FFF78DFBE268C8F1010353
:104A50001344AB421FD3384602F08BFC40451AD2B8
:104A6000A66835442946384602F071FC88B14246B2
:104A70000021284602F01EFC3946284602F071FC4F
:104A80002046A568FFF7C0FFA860236820461B6981
:104A90009847012500E000256068FFF748FF284699
:104AA000BDE8F08173B50D460446FFF7ADFF0B2D51
:104AB000064623D9A3682269196891421FD19988B3
:104AC000A28A91421BD1D988AAB2914217D89A687A
:104AD000824214D1E268AA4205D900215955E26800
:104AE0000135AA42FAD8D4E902322046DA80A56814
:104AF000FFF78AFFA860012002B070BD9DB1A168D8
:104B00000A6892B188688B880190C988084800912A
:104B10000849FFF70EFFCDE90056A38A226906492E
:104B20000348FFF706FF0020E6E71046E4E700BF72
:104B3000B0E60320C4760B00F5760B0038B50446CA
:104B4000C2688068002102F0B5FBA36822691A6080
:104B5000A368A28A9A80D4E902322046DA80A56846
:104B6000FFF752FFA86038BD08B5024B1B685B6CAD
:104B7000019308BD4802030008B5024B1B689B6CFB
:104B8000019308BD4802030008B5024B1B68DB6CAB
:104B9000019308BD4802030008B5024B1B685B6D1A
:104BA000019308BD4802030008B5024B1B685B680F
:104BB000019308BD1802030008B5024B1B68DB68AF
:104BC000019308BD1802030008B5024B1B685B691E
:104BD000019308BD1802030008B5024B1B68DB6D8A
:104BE000019308BD1802030008B5024B1B68DB687F
:104BF000019308BD2802030008B5024B1B689B699E
:104C0000019308BD2802030008B5024B1B68DB694D
:104C1000019308BD2802030008B5024B1B681B6AFC
:104C2000019308BD2802030008B5024B1B685B6AAC
:104C3000019308BD2802030008B5024B1B689B6A5C
:104C4000019308BD2802030008B5024B1B68DB6A0C
:104C5000019308BD2802030008B5024B1B681B6BBB
:104C6000019308BD2802030008B5024B1B681B6CAA
:104C7000019308BD2802030008B5024B1B689B6C1A
:104C8000019308BD2802030008B5024B1B68DB6CCA
:104C9000019308BD2802030008B5024B1B681B6D79
:104CA000019308BD2802030008B5024B1B685B692D
:104CB000019308BD6402030008B5024B1B689B68A2
:104CC000019308BD6802030008B5024B1B68DB684E
:104CD000019308BD6802030008B5024B1B689B687E
:104CE000019308BD3C02030008B5024B1B68DB685A
:104CF000019308BD3C02030008B5024B1B681B6909
:104D0000019308BD3C02030008B5024B1B685B69B8
:104D1000019308BD3C02030008B5024B1B689B6968
:104D2000019308BD3C02030008B5024B1B68DB6918
:104D3000019308BD3C02030008B5024B1B689B6A47
:104D4000019308BD3C02030008B5024B1B68DB6AF7
:104D5000019308BD3C02030008B5024B1B681B6CA5
:104D6000019308BD3C02030008B5024B1B681B6899
:104D7000019308BD4C02030008B5024B1B685B6839
:104D8000019308BD4C02030008B5024B1B689B68E9
:104D9000019308BD4C02030008B5024B1B681B6958
:104DA000019308BD4C02030008B5024B1B685B6908
:104DB000019308BD4C02030008B5024B1B689B69B8
:104DC000019308BD4C02030008B5024B1B68DB6968
:104DD000019308BD4C02030008B5024B1B681B6A17
:104DE000019308BD4C02030008B5024B1B689B6A87
:104DF000019308BD4C02030008B5024B1B685B6BB6
:104E0000019308BD6002030008B5024B1B685B6D8F
:104E1000019308BD6002030008B5024B1B68DB6EFE
:104E2000019308BD6002030008B5024B1B681B6FAD
:104E3000019308BD6002030008B5024B1B685B6864
:104E4000019308BD2002030008B5024B1B68DB6A12
:104E5000019308BD2002030008B5034B1B68D3F87B
:104E60008830019308BD00002002030008B5034B01
:104E70001B68D3F89430019308BD000020020300A2
:104E800008B5024B1B689B68019308BD44020300F0
:104E900008B5024B1B68DB6B019308BD440203009D
:104EA00008B5024B1B685B68019308BD4002030014
:104EB00008B5024B1B689B68019308BD40020300C4
:104EC00008B5024B1B68DB68019308BD4002030074
:104ED00008B5024B1B681B69019308BD4002030023
:104EE00008B5024B1B685B69019308BD40020300D3
:104EF00008B5024B1B689B69019308BD4002030083
:104F000008B5024B1B68DB69019308BD4002030032
:104F100008B5024B1B681B6A019308BD40020300E1
:104F200008B5024B1B681B6B019308BD40020300D0
:104F300008B5024B1B685B6B019308BD4002030080
:104F400008B5024B1B681B6C019308BD40020300AF
:104F500008B5024B1B685B6C019308BD400203005F
:104F600008B5024B1B681B68019308BD1C020300B7
:104F700008B5024B1B685B68019308BD1C02030067
:104F800008B5024B1B689B68019308BD1C02030017
:104F900008B5024B1B685B6A019308BD1C02030045
:104FA00008B5024B1B68DB6B019308BD1C020300B4
:104FB00008B5024B1B681B6C019308BD1C02030063
:104FC00008B5024B1B685B6C019308BD1C02030013
:104FD00010B54368013B0446436063B903689B68AE
:104FE0009847A368013BA3602BB923682046DB6880
:104FF000BDE81040184710BD70B5D0E90053044615
:1050000005EB0316AE4204D0284601F02DFC103506
:10501000F8E72068FFF7ACFF204670BD10B50446E6
:10502000006808B1FFF7D4FF204610BD02480023F6
:105030000360FFF799BD00BF68E6032000224068C7
:105040001146FFF745BF002240681146FFF760BFD9
:10505000002240681146FFF76BBF40680022FFF74F
:105060005FBF4068002281F00101FFF749BF0023C4
:1050700040681A461946FFF73BBF002340681A46AE
:105080001946FFF72DBF002240681146FFF710BFF9
:10509000406800220221FFF713BF002340681A4630
:1050A000FFF7FEBE084B10B5282422461846002103
:1050B00002F000F9054B04804FF0FF3242600422F9
:1050C0005A60034A1A6010BD74E603206CE60320A0
:1050D00054770B00002240681146FFF719BF0022E9
:1050E00040681146FFF724BF40680022FFF718BF51
:1050F0004068002281F00101FFF702BF00234068F1
:105100001A461946FFF7F4BE002340681A461946AE
:10511000FFF7E6BE002240681146FFF7D9BE002225
:1051200040681146FFF7C4BE406800220221FFF725
:10513000C7BE002340681A46FFF7B2BE024B0322E7
:105140005A60024A1A6070479CE6032090770B0071
:105150007047F8B5064615460C468F18BC4206D077
:10516000336814F8011B9B6830469847F6E72846D9
:10517000F8BD007C0022FFF74FBD007C0021FFF747
:1051800053BD007C0021FFF757BD007C0021FFF7D5
:105190005BBD007C0021FFF75FBD10B51421044604
:1051A000FEF77DFF204610BD10B54FF47A7304461C
:1051B00008460021C4E90113034B23602074114603
:1051C000FFF752FD204610BDCC770B000023007C7A
:1051D0001A461946FFF708BD7FB500221423CDE912
:1051E0000122ADF804300B788DF808304B6803933A
:1051F000CB680493007C0B7A059301A9FFF74CFD63
:1052000007B05DF804FB1FB5003B8DF800104FF0B0
:105210006401039118BF0123694601928DF808309B
:10522000FFF7DAFF05B05DF804FB007C0022FFF712
:10523000E3BCC9B2FFF7F9BF007C0022FFF7E4BC72
:1052400008B50021007CFFF717FDB0FA80F0400997
:1052500008BD08B50021007CFFF716FDB0FA80F00C
:10526000400908BD704710B518210446FEF717FF26
:10527000204610BDF0B5037D062B8DB00E4600F123
:1052800004074FF0000412D000F1080515F8011DC5
:105290000A22304601F093FAAF42044419D0002CA0
:1052A000F4D02E21304601F07BFA0444EEE72F23A0
:1052B0006A4639460A208DF80040FFF7F5FC68463B
:1052C00002F057F833680246DB6869463046984773
:1052D000044620460DB0F0BD10B5054B0446112222
:1052E00040F8043B002101F0E5FF204610BD00BF5F
:1052F000F4770B000346074A10B543F8042B01F17D
:10530000100251F8044B43F8044B9142F9D10A784A
:105310001A7010BDF4770B0010B59DF8084044EAF0
:10532000032343EA024242EA016104234160037518
:1053300010BD000007B5064B0360CB7800938B7857
:105340004A780978FFF7E8FF03B05DF804FB00BF77
:10535000F4770B0000F11003012213F8101C01294F
:10536000184608D153F8041C02EB4102013A03F13C
:105370001003F2D17047022904BF53F8041C5218DD
:10538000F4E70EB4F0B588B000AF07F13405102192
:1053900055F8042B7A6004462B467818FD60FFF719
:1053A000F7FD0F287A681AD900F1080323F00703E4
:1053B0006E46ADEB030D411C2B466846FD60FFF7C2
:1053C000E7FD021E04DD236869469B682046984776
:1053D000B5462037BD46BDE8F04003B07047002811
:1053E000F7D0236802469B6807F1100120469847D2
:1053F000EFE738B50B6803604D6843689D4204468B
:1054000008D015B16B6801336B60606808B1FFF7B5
:10541000DFFD656038BD07B503688DF807109B6830
:1054200001220DF10701984703B05DF804FB0B461C
:105430001146002210B5C0E90022044683600BB972
:10544000204610BDFFF7D5FFFAE78368EBB11A7865
:10545000032A1AD8DFE802F00417021B0520704760
:1054600002685B685268D05C2D2812D0A0F130032E
:10547000092B0ED974280ED066280CD0A0F16E032B
:10548000584258417047062070470020704704205A
:105490007047032070470220704710B50446FFF79D
:1054A000D4FF02280ED0C31EDBB2012B14D8226811
:1054B000A36850685B68BDE810400A2200211844C8
:1054C00002F00AB82268A36852685B68D05CA0F159
:1054D00074035842584110BD0020FCE738B5002342
:1054E000C0E9003304460E48C4E90203A9B10B78B1
:1054F000032B06D08BB9136858684B68C35C6E2BBE
:1055000007D013684D6858688B6828445B1BA060FF
:10551000E36011462046FFF76CFF204638BD00BF10
:1055200066780B0038B500250B46C0E90055C0E988
:105530000255C0E90455044611464BB11A78012AB8
:1055400006D103F11002DB6882604361FFF751FF6F
:10555000204638BD10B54369044663B18068E060F9
:10556000013B1030A0602061636113B1FFF7F2FED0
:10557000A060012000E0184610BD10B57D21044652
:10558000FFF749FF01232371204610BD08B50379B9
:10559000012B02D0022B04D008BD2C21FFF73BFFCA
:1055A000FAE73A21FAE710B50446FFF7EFFF204685
:1055B0007B21FFF730FF00232371204610BD000040
:1055C00013B504460191FFF7E1FF2368019ADB68F8
:1055D00003492046984701232046237102B010BD9D
:1055E00000780B0013B504460191FFF7CFFF236845
:1055F000019ADB680349204698470123204623711E
:1056000002B010BD03780B002DE9F0470D462221B2
:1056100090460446FFF7FFFEDFF8A490A8442F460B
:105620004745BA463DD017F8016B222E06D05C2EB6
:1056300004D0304601F00EFE0028F1D12368AAEB19
:1056400005029B682946204698475C212046FFF7C3
:10565000E2FE0D2E0AD8072E1CD9A6F10803052B51
:1056600018D8DFE803F00D0F11171315222E01D003
:105670005C2E0FD131462046FFF7CDFE3D46CFE7E9
:105680006221F8E77421F6E76E21F4E76621F2E77C
:105690007221F0E723683246DB6849462046984786
:1056A000ECE7BD4205D023687A1B9B68294620465B
:1056B000984722212046FFF7AEFEBDE8F08700BFE5
:1056C00006780B0013B50446CDE90021FFF75EFF15
:1056D0002046DDE90021FFF797FF022320462371D2
:1056E00002B010BD13B50446CDE90021FFF74EFF0F
:1056F0002046DDE90021FFF787FF012320462371C3
:1057000002B010BD80680368DB6818477047084620
:1057100011B10B685B681847704770477047704756
:10572000704738B504460D4600682E2101F005FE8D
:105730002368C31A2B6023B1037803B101302368B7
:105740002060184638BD10B50C210446FEF7A7FCB2
:10575000204610BD10B504210446FEF7A0FC2046EB
:1057600010BD10B504210446FEF799FC204610BD7B
:10577000FFF70ABA08B501F0EAFDB0FA80F0400977
:1057800008BD704710B50C4601F0D8F9844210D01E
:1057900001F0EEFA844205D101F0EAFABDE81040CA
:1057A00001F065B92CB1236820465B68BDE8104064
:1057B000184710BD0B6803604B68436013B15A680B
:1057C00001325A60704713B504460846019101F052
:1057D000D0FD01990246204602B0BDE81040FFF717
:1057E00081BF13B504460846019101F0C2FD23684C
:1057F0000199DB680246204602B0BDE81040184718
:1058000007B503688DF80710DB6801220DF1070169
:10581000984703B05DF804FB0EB403B503AB002159
:1058200053F8042B006A019300F0E7FF02B05DF823
:1058300004EB03B070470A6802604A6842600022C5
:10584000C0E9022210B502618C688460CC68C46033
:105850000C698A60CA6004610A6110BD2DE9F74FC6
:10586000D0E900844FF0140A00930AFB04F4184BAB
:10587000A41017465C434546002C21DD66100AFB48
:1058800006F005EB00093A46B9F804B02858019132
:105890005F4528BF5A4601F074FD002801994FF07A
:1058A00001030BD15F4503D1009A13703446E3E73F
:1058B000FCD9A61B09F11405013EF7E7F9DBF5E772
:1058C000A5EB08050248AD10684303B0BDE8F08FB2
:1058D000CDCCCCCC7FB50369057E019103B3F9B182
:1058E000002600F10C04039603A901A8FFF719FF95
:1058F0000146A8B10DF10B03039A8DF80B60204609
:10590000FFF7ACFF9DF80B3053B12368142404FB60
:105910000034083434F9023C002BA8BFDDB2E3E7C1
:10592000284604B070BD000010B5094C2378BFF3C1
:105930005B8FDB0709D42046FEF7C0FB28B1204669
:10594000FEF7C1FB034801F07FFC034810BD00BF18
:10595000A8E603201B570B00ACE5032010B5094C4B
:105960002378BFF35B8FDB0709D42046FEF7A6FB45
:1059700028B12046FEF7A7FB034801F065FC034869
:1059800010BD00BFACE6032083570B00B0E5032039
:1059900038B500250446C0E90055C0E904558560C6
:1059A000856140F8245FFFF7DFF8FFF7BDFFE06196
:1059B000FFF7D4FF25732062204638BD10B50A4C8E
:1059C0002378BFF35B8FDB070CD42046FEF776FB12
:1059D00040B10648FFF7DCFF2046FEF774FB0448A1
:1059E00001F032FC014810BDA4E60320B4E6032018
:1059F000115F0B00024A034903480023FFF714BA62
:105A0000F55C0B00815C0B00015C0B0000231A4667
:105A100019461846FFF708BA37B58D680446684638
:105A2000FFF7C8FE6A4629462046FFF77BFD01A81E
:105A3000FFF7F4FA204603B030BD37B5CD68044611
:105A40006846FFF7B7FE6A4629462046FFF746FD3F
:105A500001A8FFF7E3FA204603B030BD37B50D6962
:105A600004466846FFF7A6FE6A4629462046FFF729
:105A7000DEFC01A8FFF7D2FA204603B030BD0000DB
:105A800070B58AB00D46014604A8FFF7C5FF144E55
:105A900004A8FFF75FFDE8B104A96846FFF7CDFF52
:105AA00002983146FFF766FE044610B12C1E18BF5F
:105AB000012401A8FFF7B2FA002CE9D004A9684636
:105AC000FFF7CCFF6846FFF7E8FC286001A8FFF766
:105AD000A5FADDE705A8FFF7A1FA0AB070BD00BF7F
:105AE0000C780B0037B50C4620461349154601F0DB
:105AF0002EFC50B901F022F84FF4165101F00CF8C9
:105B000003B0BDE8304001F019B80C49204601F05F
:105B10001EFC78B94FF4165301A928460193FFF7EC
:105B2000AFFF01F025F9019900F09EFF01F020F987
:105B300003B030BD0020FBE711780B0018780B0094
:105B400070B5D0E900531426044606FB0356AE4256
:105B500005D005F10800FFF7F3FF1435F7E72068DB
:105B6000FFF706FA204670BD10B504460C30FFF76B
:105B7000E7FF2046FFF740FA204610BD10B5044B62
:105B8000044640F8043BFFF7EFFF204610BD00BF7E
:105B900080760B0010B50446FFF7F0FF2046242165
:105BA000FEF77DFA204610BD10B5034B0360044696
:105BB000FFF7E4FF204610BDB8780B0010B504468F
:105BC000FFF7F2FF20462421FEF769FA204610BDB8
:105BD0000022C0E9002210B582600C6804604C68A5
:105BE00044608C680A604A6084608A6010BD10B5A9
:105BF000036804461868FEF7CFFF204610BD00007A
:105C00002DE9F04F87B0804603931C4B5B68C3F3CC
:105C10000803894616466BB9FFF7D0FE044600F12B
:105C20002403406A0593FFF7A3FD237B2BB105A84E
:105C3000FFF7DDFF07B0BDE8F08F01232373D4E940
:105C400000535FFA89F905EB830AAA4512D055F88B
:105C5000047B3146381DFFF73DFE8145F5D33B6897
:105C6000039A0092D3F808B04A4633464146384674
:105C7000D847EAE700232373D9E700BF00ED00E02F
:105C80002DE9F74F9B461A4B5B68C3F30803804628
:105C9000894616466BB9FFF791FE044600F12403CE
:105CA000406A0193FFF764FD237B2BB101A8FFF746
:105CB0009EFF03B0BDE8F08F01232373D4E90053A6
:105CC000F6B205EB830A55450ED055F8047B5946CC
:105CD000381DFFF7FFFD8642F5D33B684A46DB6877
:105CE000414638469847EEE700232373DEE700BFBE
:105CF00000ED00E02DE9F341164B5B68C3F30803A8
:105D000005460F461BBBFFF759FE00F1240304466E
:105D1000406A0193FFF72CFDD4E90063462406EBAB
:105D20008308B04509D101A8FFF761FFA542B4BFC0
:105D30000020012002B0BDE8F08156F8040B39467E
:105D40000430FFF7C7FD8442A8BF0446E9E70020FE
:105D5000F0E700BF00ED00E0F8B5D0E901539D4247
:105D600004460E460DDB6F1C002F006804DDB900F1
:105D7000FFF706F918B9F8BDFFF7FAF80020206020
:105D8000A7602768626807EB85019200A2EB850295
:105D9000081D01F075FA47F82560636801336360F8
:105DA0000120E8E737B500F124030446406A019377
:105DB0000D46FFF7DDFCD4E9003203EB820293428B
:105DC00019460BD00968A94203F10403F7D101A8D1
:105DD000FFF70DFF0025284603B030BD29462046B9
:105DE000FFF7BAFF05460028F1D06368012B01D107
:105DF000FFF700FE01A8FFF7FAFEECE770B50446D6
:105E0000D0E900020B4600EB820282420FD001462D
:105E10001D6851F8046BAE4207D1521A01F030FAF6
:105E20006368013B6360012070BD0846EDE7002018
:105E3000FAE71FB500F124030446406A0191039379
:105E4000FFF796FC01A92046FFF7D8FF18B1636859
:105E50000BB9FFF7DBFD03A8FFF7C9FE04B010BDC7
:105E600070B5D0E904561823044603FB0656AE422B
:105E700015D005F110012046FFF7C0FF63680BB98C
:105E8000FFF7C4FDE06929690368DB689847696921
:105E900019B1206A0368DB6898471835E7E7D4E949
:105EA0000453182606FB0356AE4204D0284600F0E1
:105EB000DBFC1835F8E70023636170BD73B5044659
:105EC000FFF7A4FD04F12403606A0193FFF750FC7F
:105ED0002046FFF7C5FF01A8FFF789FE606A08B1F9
:105EE000FEF74AFED4E90453182606FB0356AE42D9
:105EF00004D0284600F0B8FC1835F8E72069FFF711
:105F000037F82068FFF734F8204602B070BD000073
:105F10000148FFF7D3BF00BFB4E603208842F8B5BD
:105F200004460D46164615D9904214D2A2F1140625
:105F3000751AA1F114072C44B7421AD01CB131468E
:105F40002046FFF778FC06F10800FFF7F9FD143E44
:105F5000143CF1E70DD0B5420BD01CB129462046C8
:105F6000FFF769FC05F10800FFF7EAFD143514346A
:105F7000F1E7F8BD8842F8B504460D46164614D937
:105F8000904213D2A2F11006751AA1F110072C4409
:105F9000B74218D01CB13146204600F0CDFC304647
:105FA00000F062FC103E103CF2E70CD0B5420AD083
:105FB0001CB12946204600F0BFFC284600F054FCE6
:105FC00010351034F2E7F8BD70B50E1E054611DD30
:105FD0003001FEF7C5FF044658B1D5E9001201EBC8
:105FE0000212FFF7C7FF2868FEF7C2FF2C60AE6001
:105FF000012070BD0024F6E72DE9F04F904695B0E2
:1060000000230391D8F804100A9346229942C0E96C
:106010000033C0E90233C0E90433CDE90833044654
:10602000027623DCD8E90057142303FB0757AF425D
:106030003BD029460BA800F07FFC0BA90FA8099EB6
:1060400000F07AFCDDE9091399421BDA089B099AF2
:1060500003EB061603EB0212314606F11000FFF7C0
:1060600089FFEEB9099B0133099311E008A8FFF7F6
:10607000ABFF0028D6D108A8FEF7BEFF204615B01A
:10608000BDE8F08F013108A8FFF79EFF0028DDD1A1
:106090000FA800F0E9FB0BA800F0E6FB1435C6E7FB
:1060A0000FA9304600F048FCDCE70026CDE90B667E
:1060B0000D964FF01409DDE908239E427CDA330186
:1060C000D35806930BB90136F5E70023079309FB74
:1060D00006F302930BAD07A906A8FFF722FB824641
:1060E0000028F0D04FF000038DF817300146079AD2
:1060F0000DF117032846FFF7B1FB9DF817700190CB
:10610000002F4AD1BDF81C30ADF84030CDE91177F1
:106110004FF6FF73CDF83CA0ADF842301397D5E9A8
:106120000132934217DB03F1010ABAF1000F30DDAF
:1061300009FB0AF0FEF714FF834660B3D5E90012AD
:1061400009FB0212FFF7EAFE2868FEF711FFC5F807
:1061500000B0C5F808A02B68019A09FB023A6A68EA
:10616000514609FB02320AF11400FFF7D7FEBAF1DB
:10617000000F03D00FA95046FFF75DFB6B6801339A
:106180006B6011A8FFF7DCFC3FB10BA8FFF7D8FC50
:1061900071E7BB46D8E70127F3E7019B2D6809FBB0
:1061A0000355069B1B782BB9D8F80030029A13448C
:1061B0001B7CEB8008358EE7216822606268636093
:1061C000A36809920A9A0A93E368A2600B9A0B9358
:1061D0002369E2600C9A0C93636922610D9A0D9316
:1061E000039B089162612376CFE70000F0B5044677
:1061F00087B00D462646194668461746FEF7E5F96C
:106200000B4B46F8043B694603A8FEF7DEF903AAE8
:1062100039463046FFF7F0FE03A8FEF795F96846C9
:10622000FEF792F9034B23602046256207B0F0BDCC
:1062300080760B00A0780B00F0B50F4685B01D49A5
:106240000A9C384616461D4601F081F8C0B9A4B133
:10625000294601A8FFF7BCFC1749242000F0ACFD3B
:10626000054630B101AB32462146FFF7BFFF134B65
:106270002B6001A8FEF768F92C46204605B0F0BD5A
:106280000F49384601F063F890B9002CF5D0294643
:1062900001A8FFF79DFC0849242000F08DFD05466C
:1062A0000028E6D001AB32462146FFF79FFFE0E72A
:1062B0000024E2E720780B00B0790B00B8780B00DF
:1062C00024780B00014B024A1A607047B0E60320A5
:1062D00035780B002DE9F047089DD0F82090044652
:1062E0000E461746984600F029FC81454CD02B7984
:1062F000190704D56A6954492046FFF78DFAB8F1A9
:10630000000F0DD05B212046FFF77AFA4146204668
:10631000FFF767FA23684D49DB6802222046984759
:106320002B79DA0723D5D5F808802F21404601F0D4
:106330003CF808B100F1010841462046FFF751FA48
:106340002B799B0708D53A212046FFF759FAEA68CE
:106350003F492046FFF760FA2A79236812F0040FBC
:10636000DB6814BF3B493C490222204698472B7901
:1063700058071DD529690B461A4613F8010B60B161
:10638000202808D11946F7E7344800F066F90028BC
:10639000ADD0BDE8F0872828EED12368521ADB681B
:1063A0002046984723682E49DB68042220469847F8
:1063B00000213846FEF730FD01462046FFF711FA6E
:1063C00023682549DB680222204698471EB13146E2
:1063D0002046FFF706FA2B7913F0300F2CD02368F4
:1063E0002049DB680222204698472B79D9060AD536
:1063F00023681D49DB68072220469847AA691B4984
:106400002046FFF709FA2B799A0611D5DB0605D548
:1064100023681049DB680222204698472368144904
:10642000DB6820460A229847E9692046FFF7D9F938
:106430005D212046FFF7E4F923680E49DB6820461A
:106440000222BDE8F047184739780B0040780B006E
:1064500000780B0043780B0048780B00DCE6032043
:1064600046780B004B780B004E780B0056780B00EB
:1064700059780B0064780B002DE9F04385B0D0F813
:1064800020900C9C05460F4690461E4600F056FB99
:10649000814505D1494800F0E0F8002840F08A80A5
:1064A0002B6A474A01924FF0000901A803938DF827
:1064B0000890FFF778F849464046FEF7ADFC4149A1
:1064C0008046012201A8FFF7FDF84146FFF77BF95E
:1064D0003FB13D49012201A8FFF7F4F83946FFF723
:1064E00072F93EB13949012201A8FFF7EBF83146B4
:1064F000FFF769F92379DF070ED5A6682F2130460B
:1065000000F053FF00B1461C3149012201A8FFF7FA
:10651000D9F83146FFF757F923799E0707D52D495A
:10652000022201A8FFF7CEF8E168FFF749F82379C6
:10653000580714D5266933461F4613F8012B2AB194
:10654000202A01D11E46F7E7282AF5D12249022246
:1065500001A8FFF7B7F8BA1B3146FFF7C3F8237954
:10656000190707D51D49012201A8FFF7ABF861699A
:10657000FFF738F82379DA0608D5042218490DEB1D
:106580000200FFF79FF8A169FFF71AF823799B062D
:1065900007D51449062201A8FFF794F8E169FFF72F
:1065A00012F901A8FEF7E9FF286A0F4903680222E1
:1065B000DB68984705B0BDE8F08300BFDCE6032048
:1065C00088780B0016780B0067780B001F7A0B0099
:1065D00069780B006B780B006E780B0071780B00FC
:1065E00073780B0078780B0064780B000023406808
:1065F0001A46FEF755BC406800220221FEF760BC37
:10660000002240681146FEF753BC00224068114644
:10661000FEF75EBC002340681A461946FEF760BCD0
:10662000002340681A461946FEF762BC4068002104
:10663000FEF786BC40680021FEF78ABC4068002255
:1066400081F00101FEF75CBC40680022FEF768BCE7
:10665000002240681146FEF76BBC002240681146DC
:10666000FEF756BC2DE9F04395B014460D4607469B
:10667000FEF732FE00211C220DA8009100F01AFE48
:1066800040230C9320466B460CAA0021FEF71CFB0E
:10669000044600284BD1024601216868FEF718FC29
:1066A0000221804622466868FEF712FC009E814661
:1066B0002146002E3BD0002939D17368022B03D02C
:1066C0000A2B11D0F669F4E7B8F1000FFAD071691E
:1066D00006A8043107ADFEF72DFE0FCD3C1D0FC4FB
:1066E0002B6823704146EDE7B9F1000FEAD07469D9
:1066F000102201A800F0DEFD06238DF8143001AD54
:1067000004F108031834186859682A4603C208338C
:10671000A3421546F7D101A906A807ADFEF7EAFD89
:106720000FCD3C1D0FC42B6823704946CAE7009863
:10673000FEF7C2FA384615B0BDE8F083024B034AB3
:106740001A6000225A607047DCE6032000790B00D3
:10675000F8B506460D468F180024BD420CD03368AC
:1067600015F8011B9B6830469847031E01DB1C444B
:10677000F3E7002C08BF1C462046F8BD13B50446BD
:10678000084659B1019100F0F4FD23680199DB68D6
:106790000246204602B0BDE81040184702B010BDC6
:1067A00003689B68184738B50D210546FFF7F8FFC9
:1067B0000A2104462846FFF7F3FF204438BD30B5D0
:1067C0008BB00023012A8DF8243098BF0A2209AC2F
:1067D0000D46B1FBF2F101FB125303F0FF03092B4D
:1067E00094BF30333733DBB2AA4204F8013DEFD90E
:1067F0002146FFF7C3FF0BB030BD2DE9F04186B055
:1068000000AF05460E46381D142114463B60FEF7C6
:10681000BFFB13280ED8391D2846FFF7AFFF0446EB
:106820001EB12846FFF7BFFF044420461837BD4677
:10683000BDE8F08100F1080323F00703E846ADEB63
:10684000030D2246411C3B686846FEF7A1FB6946E2
:106850002846FFF793FF0446C546E1E7014B0022B7
:106860009A607047E4E6032010B504460068FEF71E
:106870007FFB204610BD10B50446006808B1FEF746
:1068800077FB0023C4E90133236010BD38B504460B
:106890000D4600680131FEF773FB10B1C4E9000535
:1068A000012038BD10B50368044623B143688B420C
:1068B00001D3012010BD2046FFF7E8FF0028F9D0E2
:1068C000A368002BF5D122681370F2E737B50D46A7
:1068D000114601920446FFF7E5FF019A28B92046C8
:1068E000FFF7C9FF204603B030BDA26029462068EB
:1068F00000F0B8FC2268A3680021D154F2E738B553
:10690000054600680C4668B16A688B689A4207D3EE
:10691000096800F026FDA368AB600023A36038BDC2
:10692000FEF726FB23682B6063686B60A368AB608F
:106930000023C4E90033F1E710B50023C0E90033B8
:10694000044683600373FFF7DAFF204610BD8842D8
:1069500010B5044605D00B682BB18A681946FFF7BD
:10696000B5FF204610BDFFF786FFFAE710B50023FC
:106970000446C0E9003383600373FFF7E8FF204655
:1069800010BD0000054B02221A60054B054A9A60B3
:106990000020C3E90000FEF74FBA00BF00E7032064
:1069A000F4E603200000FFFF024B1A68024B1A6056
:1069B000704700BFB4E5032004E70320704741742B
:1069C000704708B5007CFEF7B7F920EAE07008BD13
:1069D00008B5007CFEF790F920EAE07008BD08B524
:1069E000007CFEF799F940EAE07008BD08B5007C2C
:1069F000FEF78AF940EAE07008BD007CFEF794B922
:106A000037B5457C04462DB1207C03B0BDE830404D
:106A1000FEF76AB9007C0191FEF78EF90028019912
:106A2000F2DC284603B030BD10B514210446FDF752
:106A300036FB204610BD000010B54FF47A730446B3
:106A4000084611460022C4E90123044B23600123B8
:106A500020746374FEF780F9204610BD58790B004E
:106A6000007C0023FEF770B90022FFF7F9BF007C1D
:106A7000FEF732B9417470477047704708B500217E
:106A8000007CFEF799F940EAE07008BD08B50121E5
:106A9000007CFEF791F940EAE07008BD08B5007C83
:106AA000FEF782F920EAE07008BD08B5007CFEF729
:106AB00073F920EAE07008BD13B50446007C01912B
:106AC000FEF772F90028019901DC607C20B1207C7E
:106AD000FEF77AF920EAE07002B010BD007CFEF704
:106AE0007BB910B514210446FDF7D9FA204610BD34
:106AF00010B54FF47A73044608460021C4E9011327
:106B0000044B23600123207463741146FEF72CF9B3
:106B1000204610BD88790B00007C0022FEF72CB9BE
:106B2000007CFEF731B9007CFEF75EB910B5142287
:106B30000446002100F0BEFB204610BD10B50F4CEE
:106B400088B003A8FFF7F2FF2178BFF35B8F11F045
:106B500001010FD120460191FDF7B0FA019948B12A
:106B600003AA0748FFF7C4FF2046FDF7ACFA054823
:106B700000F06AFB024808B010BD00BF08E7032020
:106B80000CE70320796A0B00014B1860704700BFC7
:106B9000B8E5032008B50B4B43B1FFF7CFFF0368FF
:106BA0001B699847002801DDAFF30080064B43B115
:106BB00000F0DEF803681B699847002801DDAFF399
:106BC000008008BD000000000000000008B5FFF7CD
:106BD000E1FFFDF7F9FF014B186008BD28E703202E
:106BE0000548064A064908B5121A00F03BFB054B5A
:106BF000054A1A6008BD00BF00F4032004F4032016
:106C0000747B0B0000F403201E1C279A07B5002399
:106C100000931A466FF07701FEF728F903B05DF88C
:106C200004FB000007B543880A2B08D0502B0BD17A
:106C3000094B1B684BB103B05DF804EB1847FFF735
:106C4000E5FF03B05DF804FB002300931A466FF0E4
:106C50007701FEF70BF9F4E724E7032010B512489B
:106C60000021FEF7ADF9114B1A68114B9A42114BF6
:106C70000CBF012200221A7001D0FFF7B1FFFDF70F
:106C800093FF044600F01EFB0B4B13B12046AFF3FD
:106C9000008000210848FEF7FBF8BDE810400748D7
:106CA0000021FEF7D9B800BF896B0B0000F4032068
:106CB0001E1C279A20E7032000000000256C0B0013
:106CC0007047000038B52025142304460360856012
:106CD00005610649284600F071F8044960602846BD
:106CE00000F06CF8E060204638BD00BFB0790B00C2
:106CF00030B50E4D2978BFF35B8F11F0010487B0DA
:106D000011D12846FDF7DAF968B101A8FFF7DAFFDB
:106D100001AA21460648FEF747FA2846FDF7D3F9AF
:106D2000044800F091FA024807B030BD2CE7032078
:106D300030E70320C16C0B007047000038B50446F3
:106D400014252A46002100F0B5FA25804025074980
:106D500025812846258200F031F8044960602846E4
:106D600000F02CF8E060204638BD00BFB0790B0081
:106D700030B50E4D2978BFF35B8F11F0010487B059
:106D800011D12846FDF79AF968B101A8FFF7D6FF9F
:106D900001AA21460648FFF74FFE2846FDF793F962
:106DA000044800F051FA024807B030BD44E7032020
:106DB00048E70320396D0B00FDF76DB9FDF76DB99C
:106DC00081F0004102E000BF83F0004330B54FEA9C
:106DD00041044FEA430594EA050F08BF90EA020F09
:106DE0001FBF54EA000C55EA020C7FEA645C7FEA9C
:106DF000655C00F0E2804FEA5454D4EB5555B8BFBF
:106E00006D420CDD2C4480EA020281EA030382EA2F
:106E1000000083EA010180EA020281EA0303362DC1
:106E200088BF30BD11F0004F4FEA01314FF4801C94
:106E30004CEA113102D0404261EB410113F0004FA6
:106E40004FEA03334CEA133302D0524263EB43035D
:106E500094EA050F00F0A780A4F10104D5F1200EFB
:106E60000DDB02FA0EFC22FA05F2801841F1000156
:106E700003FA0EF2801843FA05F359410EE0A5F12A
:106E800020050EF1200E012A03FA0EFC28BF4CF05B
:106E9000020C43FA05F3C01851EBE37101F0004511
:106EA00007D54FF0000EDCF1000C7EEB00006EEB1E
:106EB0000101B1F5801F1BD3B1F5001F0CD34908A8
:106EC0005FEA30004FEA3C0C04F101044FEA4452FF
:106ED00012F5800F80F09A80BCF1004F08BF5FEA86
:106EE000500C50F1000041EB045141EA050130BD66
:106EF0005FEA4C0C404141EB0101013C28BFB1F578
:106F0000801FE9D291F0000F04BF01460020B1FAC2
:106F100081F308BF2033A3F10B03B3F120020CDA95
:106F20000C3208DD02F1140CC2F10C0201FA0CF073
:106F300021FA02F10CE002F11402D8BFC2F1200CD8
:106F400001FA02F120FA0CFCDCBF41EA0C0190408E
:106F5000E41AA2BF01EB0451294330BD6FEA0404D7
:106F60001F3C1CDA0C340EDC04F11404C4F12002C2
:106F700020FA04F001FA02F340EA030021FA04F3D4
:106F800045EA030130BDC4F10C04C4F1200220FA2B
:106F900002F001FA04F340EA0300294630BD21FA69
:106FA00004F0294630BD94F0000F83F4801306BF2F
:106FB00081F480110134013D4EE77FEA645C18BF23
:106FC0007FEA655C29D094EA050F08BF90EA020FBA
:106FD00005D054EA000C04BF1946104630BD91EAB2
:106FE000030F1EBF0021002030BD5FEA545C05D1B5
:106FF0004000494128BF41F0004130BD14F58004F4
:107000003CBF01F5801130BD01F0004545F0FE4167
:1070100041F470014FF0000030BD7FEA645C1ABF9C
:10702000194610467FEA655C1CBF0B46024650EAD3
:10703000013406BF52EA033591EA030F41F40021FF
:1070400030BD00BF90F0000F04BF0021704730B585
:107050004FF4806404F132044FF000054FF000015A
:1070600050E700BF90F0000F04BF0021704730B51B
:107070004FF4806404F1320410F0004548BF4042F0
:107080004FF000013EE700BF42004FEAE2014FEA45
:1070900031014FEA02701FBF12F07F4393F07F4F20
:1070A00081F06051704732F07F4208BF704793F023
:1070B0007F4F04BF41F40021704730B54FF4607436
:1070C00001F0004521F000411CE700BF50EA010239
:1070D00008BF704730B54FF000050AE050EA0102E2
:1070E00008BF704730B511F0004502D5404261EB52
:1070F00041014FF4806404F132045FEA915C3FF493
:10710000D8AE4FF003025FEADC0C18BF03325FEA2F
:10711000DC0C18BF033202EBDC02C2F1200300FAE0
:1071200003FC20FA02F001FA03FE40EA0E0021FA05
:1071300002F11444BDE600BF4FF0FF3C06E000BF83
:107140004FF0010C02E000BF4FF0010C4DF804CDF0
:107150004FEA410C7FEA6C5C4FEA430C18BF7FEAB0
:107160006C5C1BD001B050EA410C0CBF52EA430CDE
:1071700091EA030F02BF90EA020F0020704710F15E
:10718000000F91EA030F58BF994208BF90422CBFED
:10719000D8176FEAE37040F0010070474FEA410CE6
:1071A0007FEA6C5C02D150EA013C07D14FEA430C04
:1071B0007FEA6C5CD6D152EA033CD3D05DF8040B75
:1071C000704700BF8446104662468C4619466346A7
:1071D00000E000BF01B5FFF7B7FF002848BF10F17E
:1071E000000F01BD4DF808EDFFF7F4FF0CBF0120C3
:1071F00000205DF808FB00BF4DF808EDFFF7EAFF3F
:1072000034BF012000205DF808FB00BF4DF808EDF9
:10721000FFF7E0FF94BF012000205DF808FB00BFEE
:107220004DF808EDFFF7CEFF94BF012000205DF878
:1072300008FB00BF4DF808EDFFF7C4FF34BF012085
:1072400000205DF808FB00BF002301461A461846DF
:1072500000F04CB9024B1844407800F0970070479A
:10726000217A0B000A44914200F1FF3300D17047AC
:1072700010B511F8014B03F8014F9142F9D110BD3F
:10728000884210B501EB020402D98442234607D894
:10729000431EA14208D011F8012B03F8012FF8E793
:1072A000024401468A4200D110BD13F8014D02F894
:1072B000014DF7E702440346934200D1704703F8BB
:1072C000011BF9E738B5104B1D68AB6B0446B3B929
:1072D0001820FDF745FE0246A86320B90B4B0C4869
:1072E0004221FDF765FE0B490B4BC0E900130B4B28
:1072F00083600B23838100210120C2E90401AB6B71
:1073000000221C615A6138BDB8E50320B1790B0039
:10731000C8790B000E33CDAB34126DE6ECDE050000
:10732000C9B2034610F8012B1AB18A42F9D11846A6
:107330007047002918BF0023F9E710B50446FFF78E
:10734000EFFF18B9204600F014F8204410BD10F8E3
:10735000012B11F8013B012A28BF9A42F7D0D01A1D
:107360007047034611F8012B03F8012B002AF9D1CD
:107370007047034613F8012B002AFBD1181A013875
:10738000704710B57AB103460139841813F8010B20
:1073900011F8012F904201D1A34201D1801A10BDF2
:1073A0000028F3D1FAE71046F9E738B503460C4652
:1073B00069B9BDE83840FFF7B3BF431C0546214615
:1073C0001846FFF7ADFF0028F7D1284638BD002545
:1073D000F5E70000012B2DE9F04701D0242B06D959
:1073E000FDF7DEFD162303600020BDE8F087DFF81F
:1073F000E4C00D462E4615F8014B14F80C7017F03A
:107400000807F7D12D2C32D12C780127B51C002B81
:107410005BD0102B09D1302C07D12C7804F0DF047D
:10742000582C4DD16C781023023507F1004808F133
:10743000FF384FF0000CB8FBF3F9664603FB198ADE
:10744000A4F1300EBEF1090F16D87446A34224DD14
:10745000BCF1000F1EDBB1451CD301D1A24519DBE5
:1074600006FB03464FF0010C15F8014BE8E72B2C07
:1074700004BF2C78B51CCAE7A4F1410EBEF1190F68
:1074800001D8373CE2E7A4F1610EBEF1190F04D830
:10749000573CDBE74FF0FF3CE6E7BCF1000F05DAB5
:1074A00022230360464642B930469EE707B1764242
:1074B000002AF9D0BCF1000F00D0691E1160F3E77B
:1074C0003024002BB1D10823AFE7302CA5D00A23FC
:1074D000ABE700BF227A0B0013460A46014602487A
:1074E0000068FFF777BF00BFB8E503202DE9F84338
:1074F000DFF8B8800646D8F800001F460D469146D2
:1075000000F056F8254B1C6834B9254C1C60254BFF
:1075100013B11B68C4F8883063681F2B07DDD8F8E7
:10752000000000F047F84FF0FF30BDE8F8834EB39D
:10753000D4F8880088B91C4B23B9D8F8000000F0B3
:1075400038F8F0E74FF48470FDF70AFD0028F4D016
:107550000023C0E94033C4F88800636840F82390F2
:1075600001229A4000EB8301D0F800311343C0F8A8
:107570000031022EC1F8807002BFD0F804311343ED
:10758000C0F804316368D8F800005A1C0233626006
:1075900044F8235000F00EF80020C6E7E8E7032087
:1075A0005CE7032000000000614F0B001CE6032095
:1075B000704770477047000021400B005D400B0092
:1075C00085400B0089400B000000000043616C6C9B
:1075D000206F6E2070757265207669727475616CAB
:1075E0000046726F6D20616E6F74686572206D6FFA
:1075F00064756C653A0025733A2025642C20256457
:107600002C20256C662C2025730000000000000053
:10761000000000000D410B0021410B001D470B0035
:10762000B3470B0035480B000000000000000000CD
:107630002D420B009D410B007B410B00ED480B00E0
:1076400015490B00A54A0B003D4B0B00E1400B0018
:10765000F9400B006166746572206C6F6164696E3D
:10766000670074657374696E672100616674657282
:107670002075706461746500000000000000000067
:107680000000000000000000A5400B00F5430B00C7
:10769000000000000000000001440B0035440B0016
:1076A000D5620B00F7430B00000000000000000053
:1076B000DD460B00DF460B001D470B00B3470B00F8
:1076C00035480B00676F743A206D616769633D252B
:1076D0003038782076657273696F6E3D2530347866
:1076E0002073697A653D2530347820686173683D80
:1076F00025303878006578703A206D616769633DA0
:10770000253038782076657273696F6E3D25303488
:10771000782073697A653D25303478206861736814
:107720003D25303878000000000000000000000017
:10773000E7480B0063490B00E5480B00ED480B00E0
:1077400015490B00A54A0B003D4B0B000000000043
:10775000000000009B500B0091500B0087500B0065
:107760003D500B007B500B006F500B002D660B0043
:1077700035660B0063500B005B500B0051500B0043
:1077800047500B0065660B00000000000000000081
:1077900033510B0029510B001F510B0015510B00E9
:1077A00009510B00FD500B002D660B0035660B00D8
:1077B000F1500B00E9500B00DF500B00D5500B00CF
:1077C00065660B00000000000000000051510B0036
:1077D0009B510B0073510B0053510B007B510B005D
:1077E00083510B008B510B0093510B0000000000E4
:1077F0000000000075520B0065520B0067520B0031
:107800002564002575007525303478006261756443
:107810000053657269616C0053657269616C310077
:107820004A534F4E53747265616D4C6F6748616E79
:10783000646C657200617070002530313075200015
:107840005D20002C200028293A2000205B00636F77
:107850006465203D200025690064657461696C736E
:10786000203D20000D0A006D0066006C6E00666E03
:10787000007400636F64650064657461696C000086
:10788000000000000000000021570B0047570B00CC
:1078900005570B0083530B000000000000000000A0
:1078A0007D5B0B00955B0B00D5620B00F7430B0073
:1078B0000000000000000000A95B0B00BD5B0B0096
:1078C00079640B000D570B00000000000000000061
:1078D0001F570B0055570B0039620B000F570B0059
:1078E00000000000000000001D570B0063570B0054
:1078F000E55A0B0085570B00000000000000000057
:10790000ED650B00F7650B0001660B000B660B00C5
:1079100015660B0021660B002D660B0035660B000B
:107920003D660B0049660B0051660B005B660B0061
:1079300065660B0025592D256D2D25645425483A83
:10794000254D3A2553257A0061736374696D65008E
:107950000000000000000000BD690B00296A0B0058
:10796000016A0B0051670B00D1690B00ED690B0038
:10797000DF690B00FB690B00BF690B00C3690B00DB
:1079800000000000000000007B6A0B00E36A0B00AF
:10799000B96A0B0051670B00AB6A0B007D6A0B00E4
:1079A0008D6A0B00DD6A0B009D6A0B00756A0B0087
:1079B000005245454E54206D616C6C6F63207375A9
:1079C00063636565646564002F746D702F6A656E0E
:1079D0006B696E732D4743432D31302D706970658F
:1079E0006C696E652D34385F32303230313132346B
:1079F0005F313630363138303633392F7372632F7A
:107A00006E65776C69622F6E65776C69622F6C6941
:107A100062632F7374646C69622F72616E642E638B
:107A2000000020202020202020202028282828286E
:107A30002020202020202020202020202020202046
:107A4000202088101010101010101010101010109E
:107A5000101004040404040404040404101010109E
:107A60001010104141414141410101010101010159
:107A700001010101010101010101010101101010C9
:107A8000101010424242424242020202020202022C
:107A9000020202020202020202020202021010109C
:107AA00010200000000000000000000000000000A6
:107AB00000000000000000000000000000000000C6
:107AC00000000000000000000000000000000000B6
:107AD00000000000000000000000000000000000A6
:107AE0000000000000000000000000000000000096
:107AF0000000000000000000000000000000000086
:107B00000000000000000000000000000000000075
:107B10000000000000000000000000000000000065
:107B200000000000D1430B0031460B002D500B002C
:107B3000A5500B003D510B00C5620B003D670B00CB
:107B40005D680B0085690B00A9690B00000000004F
:107B5000040000001400000003000000474E550020
:107B600098714B2573674DDBC348261EAE839C3648
:047B70006495038590
:047B7400000000000D
:107B7800D0780B00E8780B0048790B00BCE50320AF
:107B880000000000000000000000000000000000ED
:107B980000000000000000000000000000000000DD
:107BA80000000000000000000000000000000000CD
:107BB80000000000000000000000000000000000BD
:107BC80000000000000000000000000000000000AD
:107BD800000000000000000000000000000000009D
:047BE800ECE70320A3
:107BEC00FFFFFFFF00000102030405060708090A56
:107BFC000B0C0D0E0F101112131415161718191A51
:087C0C001B1C1D1E1F20280097
:047C14007856341258
:04000003B0004020E9
:00000001FF
