:02000002B0004C
:1040000000400B00247A0B00000006000D000502A2
:084010000401A30F00000000F1
:0440180004740B0021
:1040200009480A49884208B505D0094A824202D0A7
:10403000121A03F03DF80748074A0021121A03F04C
:104040005FF8014808BD00BF54E5032088790B00E4
:10405000C8E50320C8E50320EDE7032070B5074E4F
:10406000074C02F021FDA41BA4080025AC4200D19E
:1040700070BD56F8043B98470135F7E738790B00D7
:104080005C790B0000F0C8B808B500F0D5F8BDE8C1
:10409000084002F0C1BC00F08BBE00F089BE00F009
:1040A0008FBE000008B5034A03490C2000F0D4FD80
:1040B000FEE700BF394A0B0018740B000078B0FA15
:1040C00080F0400970470123037070477047006A11
:1040D0000368DB681847000010B5034B0360044613
:1040E00000F052FA204610BDA8740B0010B504462B
:1040F000FFF7F2FF20461021FFF7D1FF204610BD49
:104100000A4B10B50446036001F080FB214601F024
:10411000B8FD02F039FC02F02BFC2046044B40F8BD
:10412000043B01F049FC204610BD00BF90740B0019
:1041300078740B0010B50446FFF7E2FF20462421F7
:10414000FFF7ADFF204610BD0EB400B58CB00DAA30
:104150004FF0200C52F8041B0392CDE9001200230B
:10416000016804AA1E20CDE904C300F07DFD0CB057
:104170005DF804EB03B0704710B5036804460BB953
:1041800000F032FC2068BDE8104000F03DBC38B5BE
:1041900004460430FFF7F0FF206A616A03689D68F7
:1041A000D4E90223A847A2682368D1885B69204626
:1041B000984718B9236820469B699847606800F0C3
:1041C0002BFC012038BD38B504460430FFF7D4FF7E
:1041D000206A616A0368DD68D4E90223A847606841
:1041E000BDE8384000F018BC30B587B000F1480396
:1041F0000493D0E91045CDE9024590F83C30009396
:10420000836B03480A460349FFF79EFF07B030BDA2
:10421000B0E603202D740B0008B5044800F0CAF97D
:10422000BDE80840024800F0B3BA00BFD8E503205B
:1042300010E6032000000000F8B5534C00F004FC29
:104240002368C01A42F20F73984240F2968000F041
:10425000FBFB20604D4C2046FFF799FF4C49204660
:10426000FFF7C2FF201DFFF787FFE3686068043B8C
:104270000F2B8ABFA36800251D6900F0CDFB4548C0
:10428000FFF77AFFE368043B0F2B0CD9A66833696C
:1042900001359D4207D03D48356100F0F5FAB06028
:1042A0003A4800F08CFA606800F0B6FB3948FFF736
:1042B00063FFE3686068013B132B8ABFA368002596
:1042C0001D7D00F0A9FB3348FFF756FFE368013B73
:1042D000132B0DD9A668337D85F00105AB4207D0BD
:1042E0002A48357500F0D0FAB060284800F067FA27
:1042F000606800F091FB2748FFF73EFFE368083B4A
:10430000172B37D9A368D3E90667606800F084FBF0
:104310002048FFF731FFE368083B172B17D918A394
:10432000D3E900233046394602F074FCA568D5E98C
:10433000062306460F4602F07BFE40B9C5E9066734
:10434000124800F0A1FAA860104800F038FA60683E
:1043500000F062FB104B0D480A22202100F0ACFA5D
:104360000E490A48FFF740FFBDE8F8400748012121
:1043700000F011BA00260027C7E7F8BDAFF30080B0
:104380009A9999999999B93FD4E5032010E60320A9
:1043900041740B0014E603204F740B0061740B0092
:1043A00070B5D0E900531426044606FB0356AE420E
:1043B00004D0284602F080F91435F8E7206800F0B0
:1043C000FFFC204670BD8842F8B504460D461646EF
:1043D00016D9904215D2A2F11406751AA1F114074C
:1043E0002C44B7421CD02CB13146204602F0CCF907
:1043F000337C2374304602F05FF9143E143CF0E73E
:104400000ED0B5420CD02CB12946204602F0BCF9A2
:104410002B7C2374284602F04FF914351434F0E74E
:10442000F8BD2DE9F0410023C0E9003383604F68F7
:104430009F4204460E4623DD4FF0140808FB07F0A8
:1044400000F0B6FC0546D8B1D4E9001208FB021210
:10445000FFF7B9FF206800F0B3FC2560A760D6E93C
:10446000007308FB0378B84508D03946284602F0A7
:10447000A5F93B7C2B7414371435F4E7736863603B
:104480002046BDE8F08100002DE9F0418CB002F03B
:1044900055FB324E324D4FF4004201460023304668
:1044A00000F07EF800242F4B3360CDE900440294E5
:1044B00002F06AFA6946074603A8FFF7B2FFA8466A
:1044C00003A906A8FFF7ADFF274B48F8043B06A950
:1044D00009A8FFF7A6FF09AA1E21404601F0B4FC77
:1044E00009A8FFF75DFF06A8FFF75AFF1F4B2B60D7
:1044F00003A82F62FFF754FF1D4B2B6002F044FA14
:104500004FF4165102F030FA01F080F9294601F01B
:1045100071FB6846FFF744FF2146012000F0C4FB11
:10452000144B154A9A60C3E90044032000F0B4FB21
:10453000124B03F128029A60114A5C603021C3E9F2
:10454000031201229A824FF47A72C3E907260D4AB8
:104550009C615C621A600CB0BDE8F081D8E5032074
:10456000E8E50320A8740B0078740B00B4760B0008
:1045700090740B00C8E503200000FFFF10E6032045
:10458000739EA920C4740B00704710B51021044617
:10459000FFF785FD204610BD0368C9B29B68184728
:1045A00030B5034DC0E90223C0E9005130BD00BF62
:1045B000E8740B00406800F031BD10B50446006897
:1045C00000F06FFD204610BD2DE9F743044640681A
:1045D00001900D4616461F4600F05AFDA7B1E1684E
:1045E000606841F0500100F04CFD290A6068FFF757
:1045F000D3FF29466068FFF7CFFF6068002100F015
:1046000043FD48B1002400E0012401A8FFF7D5FFD5
:10461000204603B0BDE8F083202F217B6068B846B8
:1046200028BF4FF020080123424641F0500100F01E
:1046300012FD02F083FA03681B6998474045E1DBED
:1046400006EB080902F07AFA03685B69984706F8F6
:10465000010B4E45F6D14544A7EB0807BEE72DE90F
:10466000F74F0446406801900E4690461D4600F004
:104670000FFD4FF00109B9F1000F2AD04DB3E168E9
:10468000606841F0500100F0FCFC310A6068FFF7FF
:1046900083FF60683146FFF77FFFA5F11E0A47469A
:1046A000A6EB080B606817F8011B0368013D9B68C7
:1046B000984755450BEB0706B84601D0002DF1D1C0
:1046C0006068012100F0E0FC0028D7D04FF000091D
:1046D000D1E701A8FFF771FF484603B0BDE8F08FAE
:1046E0002DE9F0438BB00E46154680464068019098
:1046F0001C4600F0CDFCAE4229D2264425448CB1A4
:104700001E2C2746D8F8003028BF1E27F61BD3F8EA
:10471000089002AA3B4631464046ED1BC84748B9BF
:10472000002400E0012401A8FFF747FF20460BB05A
:10473000BDE8F083D8F8003002AAD3F80C902946DF
:104740003B464046C8470028EAD0E41BD7E7E9D9F2
:10475000002CE7D0D8F800301E2C274628BF1E2793
:10476000D3F8089002AA3B4631464046C847002885
:10477000D6D0D8F8003002AAD3F80C9029463B4690
:104780004046C8470028CBD03E443D44E41BDFE709
:1047900003685B68184710B58369044633B131B1CB
:1047A000236820469B6898470023A36110BD00F052
:1047B0004BF9A369C01AE3699842F1D2F6E710B544
:1047C000C36904461BB100F03FF9A06110BD036846
:1047D000BDE810409B68184700F01EB90EB400B544
:1047E0008CB00DAA4FF0200C52F8041B0392CDE9B7
:1047F00000120023016804AA0120CDE904C300F0DF
:1048000033FA0CB05DF804EB03B07047F0B521F05B
:104810000304184F184E194D0444A0420CD050F810
:10482000043B7B434FEA734373435A404FEAF242DF
:1048300002EB82022A44F0E701F00304044400235F
:10484000A04204D014F8015D45EA0323F8E70948C3
:10485000434309484FEA73434A4058435040084B8A
:1048600080EA10405843074B80EA5030584380EAB2
:104870001040F0BD512D9ECC9335871B646B54E6E0
:104880006BCAEB8535AEB2C2F8B504460430FFF70B
:1048900073FCA36800229F689A60A668054AF188A5
:1048A0003046FFF7B3FFB76005466068FFF794FF37
:1048B0002846F8BD3F2A1C852DE9F0410446043006
:1048C00090460D461F46FFF757FCE268C8F101030A
:1048D0001344AB421FD3384602F071FC40451AD254
:1048E000A66835442946384602F057FC88B142464E
:1048F0000021284602F004FC3946284602F057FC05
:104900002046A568FFF7C0FFA860236820461B6902
:104910009847012500E000256068FFF75DFF284605
:10492000BDE8F08173B50D460446FFF7ADFF0B2DD2
:10493000064623D9A3682269196891421FD1998834
:10494000A28A91421BD1D988AAB2914217D89A68FB
:10495000824214D1E268AA4205D900215955E26881
:104960000135AA42FAD8D4E902322046DA80A56895
:10497000FFF78AFFA860012002B070BD9DB1A16859
:104980000A6892B188688B880190C98808480091AC
:104990000849FFF723FFCDE90056A38A226906499B
:1049A0000348FFF71BFF0020E6E71046E4E700BFDF
:1049B000B0E60320FC740B002D750B0038B50446DF
:1049C000C2688068002102F09BFBA36822691A601C
:1049D000A368A28A9A80D4E902322046DA80A568C8
:1049E000FFF752FFA86038BD08B5024B1B685B6C2F
:1049F000019308BD4802030008B5024B1B689B6C7D
:104A0000019308BD4802030008B5024B1B68DB6C2C
:104A1000019308BD4802030008B5024B1B685B6D9B
:104A2000019308BD4802030008B5024B1B685B6890
:104A3000019308BD1802030008B5024B1B68DB6830
:104A4000019308BD1802030008B5024B1B685B699F
:104A5000019308BD1802030008B5024B1B68DB6810
:104A6000019308BD2802030008B5024B1B689B692F
:104A7000019308BD2802030008B5024B1B68DB69DF
:104A8000019308BD2802030008B5024B1B681B6A8E
:104A9000019308BD2802030008B5024B1B685B6A3E
:104AA000019308BD2802030008B5024B1B689B6AEE
:104AB000019308BD2802030008B5024B1B68DB6A9E
:104AC000019308BD2802030008B5024B1B681B6B4D
:104AD000019308BD2802030008B5024B1B681B6C3C
:104AE000019308BD2802030008B5024B1B689B6CAC
:104AF000019308BD2802030008B5024B1B68DB6C5C
:104B0000019308BD2802030008B5024B1B681B6D0A
:104B1000019308BD2802030008B5024B1B685B69BE
:104B2000019308BD6402030008B5024B1B689B6833
:104B3000019308BD6802030008B5024B1B68DB68DF
:104B4000019308BD6802030008B5024B1B689B680F
:104B5000019308BD3C02030008B5024B1B68DB68EB
:104B6000019308BD3C02030008B5024B1B681B699A
:104B7000019308BD3C02030008B5024B1B685B694A
:104B8000019308BD3C02030008B5024B1B689B69FA
:104B9000019308BD3C02030008B5024B1B68DB69AA
:104BA000019308BD3C02030008B5024B1B689B6AD9
:104BB000019308BD3C02030008B5024B1B68DB6A89
:104BC000019308BD3C02030008B5024B1B681B6C37
:104BD000019308BD3C02030008B5024B1B681B682B
:104BE000019308BD4C02030008B5024B1B685B68CB
:104BF000019308BD4C02030008B5024B1B689B687B
:104C0000019308BD4C02030008B5024B1B681B69E9
:104C1000019308BD4C02030008B5024B1B685B6999
:104C2000019308BD4C02030008B5024B1B689B6949
:104C3000019308BD4C02030008B5024B1B68DB69F9
:104C4000019308BD4C02030008B5024B1B681B6AA8
:104C5000019308BD4C02030008B5024B1B685B6B57
:104C6000019308BD6002030008B5024B1B685B6D31
:104C7000019308BD6002030008B5024B1B68DB6EA0
:104C8000019308BD6002030008B5024B1B681B6F4F
:104C9000019308BD6002030008B5024B1B685B6806
:104CA000019308BD2002030008B5024B1B68DB6AB4
:104CB000019308BD2002030008B5034B1B68D3F81D
:104CC0008830019308BD00002002030008B5034BA3
:104CD0001B68D3F89430019308BD00002002030044
:104CE00008B5024B1B68DB6B019308BD440203004F
:104CF00008B5024B1B685B68019308BD40020300C6
:104D000008B5024B1B689B68019308BD4002030075
:104D100008B5024B1B68DB68019308BD4002030025
:104D200008B5024B1B681B69019308BD40020300D4
:104D300008B5024B1B685B69019308BD4002030084
:104D400008B5024B1B689B69019308BD4002030034
:104D500008B5024B1B68DB69019308BD40020300E4
:104D600008B5024B1B681B6A019308BD4002030093
:104D700008B5024B1B681B6B019308BD4002030082
:104D800008B5024B1B685B6B019308BD4002030032
:104D900008B5024B1B681B6C019308BD4002030061
:104DA00008B5024B1B685B6C019308BD4002030011
:104DB00008B5024B1B681B68019308BD1C02030069
:104DC00008B5024B1B685B68019308BD1C02030019
:104DD00008B5024B1B689B68019308BD1C020300C9
:104DE00008B5024B1B685B6A019308BD1C020300F7
:104DF00008B5024B1B68DB6B019308BD1C02030066
:104E000008B5024B1B681B6C019308BD1C02030014
:104E100008B5024B1B685B6C019308BD1C020300C4
:104E200010B54368013B0446436063B903689B685F
:104E30009847A368013BA3602BB923682046DB6831
:104E4000BDE81040184710BD70B5D0E900530446C6
:104E500005EB0316AE4204D0284601F02DFC1035B8
:104E6000F8E72068FFF7ACFF204670BD10B5044698
:104E7000006808B1FFF7D4FF204610BD02480023A8
:104E80000360FFF7B1BD00BF68E603200022406861
:104E90001146FFF745BF002240681146FFF760BF8B
:104EA000002240681146FFF76BBF40680022FFF701
:104EB0005FBF4068002281F00101FFF749BF002376
:104EC00040681A461946FFF73BBF002340681A4660
:104ED0001946FFF72DBF002240681146FFF710BFAB
:104EE000406800220221FFF713BF002340681A46E2
:104EF000FFF7FEBE084B10B52824224618460021B5
:104F000002F0FEF8054B04804FF0FF3242600422AD
:104F10005A60034A1A6010BD74E603206CE6032051
:104F200068750B00002240681146FFF719BF002288
:104F300040681146FFF724BF40680022FFF718BF02
:104F40004068002281F00101FFF702BF00234068A2
:104F50001A461946FFF7F4BE002340681A46194660
:104F6000FFF7E6BE002240681146FFF7D9BE0022D7
:104F700040681146FFF7C4BE406800220221FFF7D7
:104F8000C7BE002340681A46FFF7B2BE024B032299
:104F90005A60024A1A6070479CE60320A4750B0011
:104FA0007047F8B5064615460C468F18BC4206D029
:104FB000336814F8011B9B6830469847F6E728468B
:104FC000F8BD007C0022FFF75FBD007C0021FFF7E9
:104FD00063BD007C0021FFF767BD007C0021FFF767
:104FE0006BBD007C0021FFF76FBD10B51421044696
:104FF000FFF755F8204610BD10B54FF47A730446FC
:1050000008460021C4E90113034B236020741146B4
:10501000FFF762FD204610BDE0750B000023007C09
:105020001A461946FFF718BD7FB500221423CDE9B3
:105030000122ADF804300B788DF808304B680393EB
:10504000CB680493007C0B7A059301A9FFF75CFD04
:1050500007B05DF804FB1FB5003B8DF800104FF062
:105060006401039118BF0123694601928DF808304D
:10507000FFF7DAFF05B05DF804FB007C0022FFF7C4
:10508000F3BCC9B2FFF7F9BF007C0022FFF7F4BC04
:1050900008B50021007CFFF727FDB0FA80F0400939
:1050A00008BD08B50021007CFFF726FDB0FA80F0AE
:1050B000400908BD704710B518210446FEF7EFFF00
:1050C000204610BDF0B5037D062B8DB00E4600F1D5
:1050D00004074FF0000412D000F1080515F8011D77
:1050E0000A22304601F093FAAF42044419D0002C52
:1050F000F4D02E21304601F07BFA0444EEE72F2352
:105100006A4639460A208DF80040FFF705FD6846DB
:1051100002F055F833680246DB6869463046984726
:10512000044620460DB0F0BD10B5054B04461122D3
:1051300040F8043B002101F0E3FF204610BD00BF12
:1051400008760B000346074A10B543F8042B01F11B
:10515000100251F8044B43F8044B9142F9D10A78FC
:105160001A7010BD08760B0010B59DF8084044EA8F
:10517000032343EA024242EA0161042341600375CA
:1051800010BD000007B5064B0360CB7800938B7809
:105190004A780978FFF7E8FF03B05DF804FB00BF29
:1051A00008760B0000F11003012213F8101C0129EE
:1051B000184608D153F8041C02EB4102013A03F1EE
:1051C0001003F2D17047022904BF53F8041C52188F
:1051D000F4E70EB4F0B588B000AF07F13405102144
:1051E00055F8042B7A6004462B467818FD60FFF7CB
:1051F000F7FD0F287A681AD900F1080323F0070396
:105200006E46ADEB030D411C2B466846FD60FFF773
:10521000E7FD021E04DD236869469B682046984727
:10522000B5462037BD46BDE8F04003B070470028C2
:10523000F7D0236802469B6807F110012046984783
:10524000EFE738B50B6803604D6843689D4204463C
:1052500008D015B16B6801336B60606808B1FFF767
:10526000DFFD656038BD07B503688DF807109B68E2
:1052700001220DF10701984703B05DF804FB0B46CE
:105280001146002210B5C0E90022044683600BB924
:10529000204610BDFFF7D5FFFAE78368EBB11A7817
:1052A000032A1AD8DFE802F00417021B0520704712
:1052B00002685B685268D05C2D2812D0A0F13003E0
:1052C000092B0ED974280ED066280CD0A0F16E03DD
:1052D000584258417047062070470020704704200C
:1052E0007047032070470220704710B50446FFF74F
:1052F000D4FF02280ED0C31EDBB2012B14D82268C3
:10530000A36850685B68BDE810400A220021184479
:1053100002F008B82268A36852685B68D05CA0F10C
:1053200074035842584110BD0020FCE738B50023F3
:10533000C0E9003304460E48C4E90203A9B10B7862
:10534000032B06D08BB9136858684B68C35C6E2B6F
:1053500007D013684D6858688B6828445B1BA060B1
:10536000E36011462046FFF76CFF204638BD00BFC2
:105370007A760B0038B500250B46C0E90055C0E928
:105380000255C0E90455044611464BB11A78012A6A
:1053900006D103F11002DB6882604361FFF751FF21
:1053A000204638BD10B54369044663B18068E060AB
:1053B000013B1030A0602061636113B1FFF7F2FE82
:1053C000A060012000E0184610BD10B57D21044604
:1053D000FFF749FF01232371204610BD08B503796B
:1053E000012B02D0022B04D008BD2C21FFF73BFF7C
:1053F000FAE73A21FAE710B50446FFF7EFFF204637
:105400007B21FFF730FF00232371204610BD0000F1
:1054100013B504460191FFF7E1FF2368019ADB68A9
:1054200003492046984701232046237102B010BD4E
:1054300014760B0013B504460191FFF7CFFF2368E4
:10544000019ADB68034920469847012320462371CF
:1054500002B010BD17760B002DE9F0470D46222152
:1054600090460446FFF7FFFEDFF8A490A8442F46BD
:105470004745BA463DD017F8016B222E06D05C2E68
:1054800004D0304601F00CFE0028F1D12368AAEBCD
:1054900005029B682946204698475C212046FFF775
:1054A000E2FE0D2E0AD8072E1CD9A6F10803052B03
:1054B00018D8DFE803F00D0F11171315222E01D0B5
:1054C0005C2E0FD131462046FFF7CDFE3D46CFE79B
:1054D0006221F8E77421F6E76E21F4E76621F2E72E
:1054E0007221F0E723683246DB6849462046984738
:1054F000ECE7BD4205D023687A1B9B68294620460D
:10550000984722212046FFF7AEFEBDE8F08700BF96
:105510001A760B0013B50446CDE90021FFF75EFFB4
:105520002046DDE90021FFF797FF02232046237183
:1055300002B010BD13B50446CDE90021FFF74EFFC0
:105540002046DDE90021FFF787FF01232046237174
:1055500002B010BD80680368DB68184770470846D2
:1055600011B10B685B681847704770477047704708
:10557000704738B504460D4600682E2101F003FE41
:105580002368C31A2B6023B1037803B10130236869
:105590002060184638BD10B50C210446FEF77FFD8B
:1055A000204610BD10B504210446FEF778FD2046C4
:1055B00010BD10B504210446FEF771FD204610BD54
:1055C000FFF722BA08B501F0E8FDB0FA80F0400913
:1055D00008BD704710B50C4601F0D6F9844210D0D2
:1055E00001F0ECFA844205D101F0E8FABDE8104080
:1055F00001F065B92CB1236820465B68BDE8104016
:10560000184710BD0B6803604B68436013B15A68BC
:1056100001325A60704713B504460846019101F003
:10562000CEFD01990246204602B0BDE81040FFF7CA
:1056300081BF13B504460846019101F0C0FD2368FF
:105640000199DB680246204602B0BDE810401847C9
:1056500007B503688DF80710DB6801220DF107011B
:10566000984703B05DF804FB0EB403B503AB00210B
:1056700053F8042B006A019300F0E7FF02B05DF8D5
:1056800004EB03B070470A6802604A684260002277
:10569000C0E9022210B502618C688460CC68C460E5
:1056A0000C698A60CA6004610A6110BD2DE9F74F78
:1056B000D0E900844FF0140A00930AFB04F4184B5D
:1056C000A41017465C434546002C21DD66100AFBFA
:1056D00006F005EB00093A46B9F804B028580191E4
:1056E0005F4528BF5A4601F072FD002801994FF02E
:1056F00001030BD15F4503D1009A13703446E3E7F1
:10570000FCD9A61B09F11405013EF7E7F9DBF5E723
:10571000A5EB08050248AD10684303B0BDE8F08F63
:10572000CDCCCCCC7FB50369057E019103B3F9B133
:10573000002600F10C04039603A901A8FFF719FF46
:105740000146A8B10DF10B03039A8DF80B602046BA
:10575000FFF7ACFF9DF80B3053B12368142404FB12
:105760000034083434F9023C002BA8BFDDB2E3E773
:10577000284604B070BD000010B5094C2378BFF373
:105780005B8FDB0709D42046FEF798FC28B1204642
:10579000FEF799FC034801F07DFC034810BD00BFF3
:1057A000A8E603206B550B0054E5032010B5094C07
:1057B0002378BFF35B8FDB0709D42046FEF77EFC1E
:1057C00028B12046FEF77FFC034801F063FC034844
:1057D00010BD00BFACE60320D3550B0058E50320F5
:1057E00038B500250446C0E90055C0E90455856078
:1057F000856140F8245FFFF7F7F8FFF7BDFFE06130
:10580000FFF7D4FF25732062204638BD10B50A4C3F
:105810002378BFF35B8FDB070CD42046FEF74EFCEA
:1058200040B10648FFF7DCFF2046FEF74CFC044879
:1058300001F030FC014810BDA4E60320B4E60320CB
:10584000615D0B00024A034903480023FFF71CBABD
:10585000455B0B00D15A0B00515A0B0000231A462E
:1058600019461846FFF710BA37B58D6804466846E2
:10587000FFF7C8FE6A4629462046FFF77BFD01A8D0
:10588000FFF7F4FA204603B030BD37B5CD680446C3
:105890006846FFF7B7FE6A4629462046FFF746FDF1
:1058A00001A8FFF7E3FA204603B030BD37B50D6914
:1058B00004466846FFF7A6FE6A4629462046FFF7DB
:1058C000DEFC01A8FFF7D2FA204603B030BD00008D
:1058D00070B58AB00D46014604A8FFF7C5FF144E07
:1058E00004A8FFF75FFDE8B104A96846FFF7CDFF04
:1058F00002983146FFF766FE044610B12C1E18BF11
:10590000012401A8FFF7B2FA002CE9D004A96846E7
:10591000FFF7CCFF6846FFF7E8FC286001A8FFF717
:10592000A5FADDE705A8FFF7A1FA0AB070BD00BF30
:1059300020760B0037B50C4620461349154601F07A
:105940002CFC50B901F020F84FF4165101F00CF87E
:1059500003B0BDE8304001F017B80C49204601F013
:105960001CFC78B94FF4165301A928460193FFF7A0
:10597000AFFF01F023F9019900F09EFF01F01EF93D
:1059800003B030BD0020FBE725760B002C760B0022
:1059900070B5D0E900531426044606FB0356AE4208
:1059A00005D005F10800FFF7F3FF1435F7E720688D
:1059B000FFF706FA204670BD10B504460C30FFF71D
:1059C000E7FF2046FFF740FA204610BD10B5044B14
:1059D000044640F8043BFFF7EFFF204610BD00BF30
:1059E00078740B0010B50446FFF7F0FF2046242121
:1059F000FEF755FB204610BD10B5034B036004466F
:105A0000FFF7E4FF204610BDCC760B0010B504462E
:105A1000FFF7F2FF20462421FEF741FB204610BD90
:105A20000022C0E9002210B582600C6804604C6856
:105A300044608C680A604A6084608A6010BD10B55A
:105A4000036804461868FEF7E7FF204610BD000013
:105A50002DE9F04F87B0804603931C4B5B68C3F37E
:105A60000803894616466BB9FFF7D0FE044600F1DD
:105A70002403406A0593FFF7A3FD237B2BB105A800
:105A8000FFF7DDFF07B0BDE8F08F01232373D4E9F2
:105A900000535FFA89F905EB830AAA4512D055F83D
:105AA000047B3146381DFFF73DFE8145F5D33B6849
:105AB000039A0092D3F808B04A4633464146384626
:105AC000D847EAE700232373D9E700BF00ED00E0E1
:105AD0002DE9F74F9B461A4B5B68C3F308038046DA
:105AE000894616466BB9FFF791FE044600F1240380
:105AF000406A0193FFF764FD237B2BB101A8FFF7F8
:105B00009EFF03B0BDE8F08F01232373D4E9005357
:105B1000F6B205EB830A55450ED055F8047B59467D
:105B2000381DFFF7FFFD8642F5D33B684A46DB6828
:105B3000414638469847EEE700232373DEE700BF6F
:105B400000ED00E02DE9F341164B5B68C3F3080359
:105B500005460F461BBBFFF759FE00F12403044620
:105B6000406A0193FFF72CFDD4E90063462406EB5D
:105B70008308B04509D101A8FFF761FFA542B4BF72
:105B80000020012002B0BDE8F08156F8040B394630
:105B90000430FFF7C7FD8442A8BF0446E9E70020B0
:105BA000F0E700BF00ED00E0F8B5D0E901539D42F9
:105BB00004460E460DDB6F1C002F006804DDB900A3
:105BC000FFF706F918B9F8BDFFF7FAF800202060D2
:105BD000A7602768626807EB85019200A2EB850247
:105BE000081D01F073FA47F82560636801336360AC
:105BF0000120E8E737B500F124030446406A019329
:105C00000D46FFF7DDFCD4E9003203EB820293423C
:105C100019460BD00968A94203F10403F7D101A882
:105C2000FFF70DFF0025284603B030BD294620466A
:105C3000FFF7BAFF05460028F1D06368012B01D1B8
:105C4000FFF700FE01A8FFF7FAFEECE770B5044687
:105C5000D0E900020B4600EB820282420FD00146DF
:105C60001D6851F8046BAE4207D1521A01F02EFAAA
:105C70006368013B6360012070BD0846EDE70020CA
:105C8000FAE71FB500F124030446406A019103932B
:105C9000FFF796FC01A92046FFF7D8FF18B163680B
:105CA0000BB9FFF7DBFD03A8FFF7C9FE04B010BD79
:105CB00070B5D0E904561823044603FB0656AE42DD
:105CC00015D005F110012046FFF7C0FF63680BB93E
:105CD000FFF7C4FDE06929690368DB6898476969D3
:105CE00019B1206A0368DB6898471835E7E7D4E9FB
:105CF0000453182606FB0356AE4204D0284600F093
:105D0000DBFC1835F8E70023636170BD73B504460A
:105D1000FFF7A4FD04F12403606A0193FFF750FC30
:105D20002046FFF7C5FF01A8FFF789FE606A08B1AA
:105D3000FEF762FED4E90453182606FB0356AE4272
:105D400004D0284600F0B8FC1835F8E72069FFF7C2
:105D500037F82068FFF734F8204602B070BD000025
:105D60000148FFF7D3BF00BFB4E603208842F8B56F
:105D700004460D46164615D9904214D2A2F11406D7
:105D8000751AA1F114072C44B7421AD01CB1314640
:105D90002046FFF778FC06F10800FFF7F9FD143EF6
:105DA000143CF1E70DD0B5420BD01CB1294620467A
:105DB000FFF769FC05F10800FFF7EAFD143514341C
:105DC000F1E7F8BD8842F8B504460D46164614D9E9
:105DD000904213D2A2F11006751AA1F110072C44BB
:105DE000B74218D01CB13146204600F0CDFC3046F9
:105DF00000F062FC103E103CF2E70CD0B5420AD035
:105E00001CB12946204600F0BFFC284600F054FC97
:105E100010351034F2E7F8BD70B50E1E054611DDE1
:105E20003001FEF7C5FF044658B1D5E9001201EB79
:105E30000212FFF7C7FF2868FEF7C2FF2C60AE60B2
:105E4000012070BD0024F6E72DE9F04F904695B093
:105E500000230391D8F804100A9346229942C0E91E
:105E60000033C0E90233C0E90433CDE90833044606
:105E7000027623DCD8E90057142303FB0757AF420F
:105E80003BD029460BA800F07FFC0BA90FA8099E68
:105E900000F07AFCDDE9091399421BDA089B099AA4
:105EA00003EB061603EB0212314606F11000FFF772
:105EB00089FFEEB9099B0133099311E008A8FFF7A8
:105EC000ABFF0028D6D108A8FEF7BEFF204615B0CC
:105ED000BDE8F08F013108A8FFF79EFF0028DDD153
:105EE0000FA800F0E9FB0BA800F0E6FB1435C6E7AD
:105EF0000FA9304600F048FCDCE70026CDE90B6630
:105F00000D964FF01409DDE908239E427CDA330137
:105F1000D35806930BB90136F5E70023079309FB25
:105F200006F302930BAD07A906A8FFF722FB8246F2
:105F30000028F0D04FF000038DF817300146079A83
:105F40000DF117032846FFF7B1FB9DF8177001907C
:105F5000002F4AD1BDF81C30ADF84030CDE91177A3
:105F60004FF6FF73CDF83CA0ADF842301397D5E95A
:105F70000132934217DB03F1010ABAF1000F30DD61
:105F800009FB0AF0FEF714FF834660B3D5E900125F
:105F900009FB0212FFF7EAFE2868FEF711FFC5F8B9
:105FA00000B0C5F808A02B68019A09FB023A6A689C
:105FB000514609FB02320AF11400FFF7D7FEBAF18D
:105FC000000F03D00FA95046FFF75DFB6B6801334C
:105FD0006B6011A8FFF7DCFC3FB10BA8FFF7D8FC02
:105FE00071E7BB46D8E70127F3E7019B2D6809FB62
:105FF0000355069B1B782BB9D8F80030029A13443E
:106000001B7CEB8008358EE7216822606268636044
:10601000A36809920A9A0A93E368A2600B9A0B9309
:106020002369E2600C9A0C93636922610D9A0D93C7
:10603000039B089162612376CFE70000F0B5044628
:1060400087B00D462646194668461746FEF7E9F919
:106050000B4B46F8043B694603A8FEF7E2F903AA96
:1060600039463046FFF7F0FE03A8FEF799F9684677
:10607000FEF796F9034B23602046256207B0F0BD7A
:1060800078740B00B4760B00F0B50F4685B01D494F
:106090000A9C384616461D4601F07FF8C0B9A4B1E7
:1060A000294601A8FFF7BCFC1749242000F0AAFDEF
:1060B000054630B101AB32462146FFF7BFFF134B17
:1060C0002B6001A8FEF76CF92C46204605B0F0BD08
:1060D0000F49384601F061F890B9002CF5D02946F7
:1060E00001A8FFF79DFC0849242000F08BFD054620
:1060F0000028E6D001AB32462146FFF79FFFE0E7DC
:106100000024E2E734760B00C4770B00CC760B005A
:1061100038760B00014B024A1A607047B0E6032044
:1061200049760B002DE9F047089DD0F820900446F1
:106130000E461746984600F027FC81454CD02B7937
:10614000190704D56A6954492046FFF78DFAB8F15A
:10615000000F0DD05B212046FFF77AFA414620461A
:10616000FFF767FA23684D49DB680222204698470B
:106170002B79DA0723D5D5F808802F21404601F086
:106180003AF808B100F1010841462046FFF751FAFC
:106190002B799B0708D53A212046FFF759FAEA6880
:1061A0003F492046FFF760FA2A79236812F0040F6E
:1061B000DB6814BF3B493C490222204698472B79B3
:1061C00058071DD529690B461A4613F8010B60B113
:1061D000202808D11946F7E7344800F066F900286E
:1061E000ADD0BDE8F0872828EED12368521ADB68CD
:1061F0002046984723682E49DB68042220469847AA
:1062000000213846FEF738FD01462046FFF711FA17
:1062100023682549DB680222204698471EB1314693
:106220002046FFF706FA2B7913F0300F2CD02368A5
:106230002049DB680222204698472B79D9060AD5E7
:1062400023681D49DB68072220469847AA691B4935
:106250002046FFF709FA2B799A0611D5DB0605D5FA
:1062600023681049DB6802222046984723681449B6
:10627000DB6820460A229847E9692046FFF7D9F9EA
:106280005D212046FFF7E4F923680E49DB682046CC
:106290000222BDE8F04718474D760B0054760B00FC
:1062A00014760B0057760B005C760B00DCE60320BF
:1062B0005A760B005F760B0062760B006A760B0055
:1062C0006D760B0078760B002DE9F04385B0D0F8A1
:1062D00020900C9C05460F4690461E4600F054FB4D
:1062E000814505D1494800F0E0F8002840F08A8057
:1062F0002B6A474A01924FF0000901A803938DF8D9
:106300000890FFF778F849464046FEF7B5FC41494A
:106310008046012201A8FFF7FDF84146FFF77BF90F
:106320003FB13D49012201A8FFF7F4F83946FFF7D4
:1063300072F93EB13949012201A8FFF7EBF8314665
:10634000FFF769F92379DF070ED5A6682F213046BC
:1063500000F051FF00B1461C3149012201A8FFF7AE
:10636000D9F83146FFF757F923799E0707D52D490C
:10637000022201A8FFF7CEF8E168FFF749F8237978
:10638000580714D5266933461F4613F8012B2AB146
:10639000202A01D11E46F7E7282AF5D122490222F8
:1063A00001A8FFF7B7F8BA1B3146FFF7C3F8237906
:1063B000190707D51D49012201A8FFF7ABF861694C
:1063C000FFF738F82379DA0608D5042218490DEBCF
:1063D0000200FFF79FF8A169FFF71AF823799B06DF
:1063E00007D51449062201A8FFF794F8E169FFF7E1
:1063F00012F901A8FEF7E9FF286A0F490368022293
:10640000DB68984705B0BDE8F08300BFDCE60320F9
:106410009C760B002A760B007B760B0033780B0002
:106420007D760B007F760B0082760B0085760B0065
:1064300087760B008C760B0078760B000023406883
:106440001A46FEF755BC406800220221FEF760BCE8
:10645000002240681146FEF753BC002240681146F6
:10646000FEF75EBC002340681A461946FEF760BC82
:10647000002340681A461946FEF762BC40680021B6
:10648000FEF786BC40680021FEF78ABC4068002207
:1064900081F00101FEF75CBC40680022FEF768BC99
:1064A000002240681146FEF76BBC0022406811468E
:1064B000FEF756BC2DE9F04395B014460D4607464D
:1064C000FEF732FE00211C220DA8009100F018FEFC
:1064D00040230C9320466B460CAA0021FEF72CFBB0
:1064E000044600284BD1024601216868FEF718FCDB
:1064F0000221804622466868FEF712FC009E814613
:106500002146002E3BD0002939D17368022B03D0DD
:106510000A2B11D0F669F4E7B8F1000FFAD07169CF
:1065200006A8043107ADFEF72DFE0FCD3C1D0FC4AC
:106530002B6823704146EDE7B9F1000FEAD074698A
:10654000102201A800F0DCFD06238DF8143001AD07
:1065500004F108031834186859682A4603C208333E
:10656000A3421546F7D101A906A807ADFEF7EAFD3B
:106570000FCD3C1D0FC42B6823704946CAE7009815
:10658000FEF7D2FA384615B0BDE8F083024B034A55
:106590001A6000225A607047DCE6032014770B0073
:1065A000F8B506460D468F180024BD420CD033685E
:1065B00015F8011B9B6830469847031E01DB1C44FD
:1065C000F3E7002C08BF1C462046F8BD13B504466F
:1065D000084659B1019100F0F2FD23680199DB688A
:1065E0000246204602B0BDE81040184702B010BD78
:1065F00003689B68184738B50D210546FFF7F8FF7B
:106600000A2104462846FFF7F3FF204438BD30B581
:106610008BB00023012A8DF8243098BF0A2209ACE0
:106620000D46B1FBF2F101FB125303F0FF03092BFE
:1066300094BF30333733DBB2AA4204F8013DEFD9BF
:106640002146FFF7C3FF0BB030BD2DE9F04186B006
:1066500000AF05460E46381D142114463B60FEF778
:10666000BFFB13280ED8391D2846FFF7AFFF04469D
:106670001EB12846FFF7BFFF044420461837BD4629
:10668000BDE8F08100F1080323F00703E846ADEB15
:10669000030D2246411C3B686846FEF7A1FB694694
:1066A0002846FFF793FF0446C546E1E7014B002269
:1066B0009A607047E4E6032010B504460068FEF7D0
:1066C0007FFB204610BD10B50446006808B1FEF7F8
:1066D00077FB0023C4E90133236010BD38B50446BD
:1066E0000D4600680131FEF773FB10B1C4E90005E7
:1066F000012038BD10B50368044623B143688B42BE
:1067000001D3012010BD2046FFF7E8FF0028F9D093
:10671000A368002BF5D122681370F2E737B50D4658
:10672000114601920446FFF7E5FF019A28B9204679
:10673000FFF7C9FF204603B030BDA260294620689C
:1067400000F0B6FC2268A3680021D154F2E738B506
:10675000054600680C4668B16A688B689A4207D3A0
:10676000096800F024FDA368AB600023A36038BD76
:10677000FEF726FB23682B6063686B60A368AB6041
:106780000023C4E90033F1E710B50023C0E900336A
:10679000044683600373FFF7DAFF204610BD88428A
:1067A00010B5044605D00B682BB18A681946FFF76F
:1067B000B5FF204610BDFFF786FFFAE710B50023AE
:1067C0000446C0E9003383600373FFF7E8FF204607
:1067D00010BD0000054B02221A60054B054A9A6065
:1067E0000020C3E90000FEF757BA00BF00E703200E
:1067F000F4E603200000FFFF024B1A68024B1A6008
:10680000704700BF5CE5032004E703207047417434
:10681000704708B5007CFEF7C7F920EAE07008BDB4
:1068200008B5007CFEF7A0F920EAE07008BD08B5C5
:10683000007CFEF7A9F940EAE07008BD08B5007CCD
:10684000FEF79AF940EAE07008BD007CFEF7A4B9B3
:1068500037B5457C04462DB1207C03B0BDE83040FF
:10686000FEF77AB9007C0191FEF79EF900280199A4
:10687000F2DC284603B030BD10B514210446FDF704
:106880000EFC204610BD000010B54FF47A7304468C
:10689000084611460022C4E90123044B236001236A
:1068A00020746374FEF790F9204610BD6C770B00DE
:1068B000007C0023FEF780B90022FFF7F9BF007CBF
:1068C000FEF742B9417470477047704708B5002120
:1068D000007CFEF7A9F940EAE07008BD08B5012187
:1068E000007CFEF7A1F940EAE07008BD08B5007C25
:1068F000FEF792F920EAE07008BD08B5007CFEF7CB
:1069000083F920EAE07008BD13B50446007C0191CC
:10691000FEF782F90028019901DC607C20B1207C1F
:10692000FEF78AF920EAE07002B010BD007CFEF7A5
:106930008BB910B514210446FDF7B1FB204610BDFC
:1069400010B54FF47A73044608460021C4E90113D8
:10695000044B23600123207463741146FEF73CF955
:10696000204610BD9C770B00007C0022FEF73CB94E
:10697000007CFEF741B910B514220446002100F056
:10698000BFFB204610BD000010B50F4C88B003A817
:10699000FFF7F1FF2178BFF35B8F11F001010FD1F9
:1069A00020460191FDF78AFB019948B103AA0748E7
:1069B000FFF7C6FF2046FDF786FB054800F06AFB9F
:1069C000024808B010BD00BF08E703200CE7032011
:1069D000C9680B00014B1860704700BF60E50320D9
:1069E00008B50B4B43B1FFF7CFFF03681B6998470E
:1069F000002801DDAFF30080064B43B100F0DEF864
:106A000003681B699847002801DDAFF3008008BDCB
:106A1000000000000000000008B5FFF7E1FFFEF7EE
:106A200013F8014B186008BD28E703200548064A03
:106A3000064908B5121A00F03BFB054B054A1A60DF
:106A400008BD00BF00F4032004F4032084790B0088
:106A500000F403201E1C279A07B5002300931A4652
:106A60006FF07701FEF732F903B05DF804FB000028
:106A700007B543880A2B08D0502B0BD1094B1B6854
:106A80004BB103B05DF804EB1847FFF7E5FF03B027
:106A90005DF804FB002300931A466FF07701FEF7C0
:106AA00015F9F4E724E7032010B512480021FEF79A
:106AB000AFF9114B1A68114B9A42114B0CBF0122CE
:106AC00000221A7001D0FFF7B1FFFDF7ADFF0446B9
:106AD00000F01EFB0B4B13B12046AFF300800021EA
:106AE0000848FEF7FDF8BDE8104007480021FEF712
:106AF000E3B800BFD5690B0000F403201E1C279AE1
:106B000020E7032000000000716A0B0070470000BE
:106B100038B52025142304460360856005610649C5
:106B2000284600F071F804496060284600F06CF8CF
:106B3000E060204638BD00BFC4770B0030B50E4D75
:106B40002978BFF35B8F11F0010487B011D128467B
:106B5000FDF7B4FA68B101A8FFF7DAFF01AA2146F0
:106B60000648FEF749FA2846FDF7ADFA044800F05A
:106B700091FA024807B030BD2CE7032030E703202C
:106B80000D6B0B007047000038B5044614252A46EB
:106B9000002100F0B5FA25804025074925812846C7
:106BA000258200F031F804496060284600F02CF896
:106BB000E060204638BD00BFC4770B0030B50E4DF5
:106BC0002978BFF35B8F11F0010487B011D12846FB
:106BD000FDF774FA68B101A8FFF7D6FF01AA2146B4
:106BE0000648FFF751FE2846FDF76DFA044800F00D
:106BF00051FA024807B030BD44E7032048E70320BC
:106C0000856B0B00FDF747BAFDF747BA81F00041ED
:106C100002E000BF83F0004330B54FEA41044FEA81
:106C2000430594EA050F08BF90EA020F1FBF54EA1C
:106C3000000C55EA020C7FEA645C7FEA655C00F0B8
:106C4000E2804FEA5454D4EB5555B8BF6D420CDD89
:106C50002C4480EA020281EA030382EA000083EA0C
:106C6000010180EA020281EA0303362D88BF30BDAC
:106C700011F0004F4FEA01314FF4801C4CEA113102
:106C800002D0404261EB410113F0004F4FEA033361
:106C90004CEA133302D0524263EB430394EA050FEC
:106CA00000F0A780A4F10104D5F1200E0DDB02FA5B
:106CB0000EFC22FA05F2801841F1000103FA0EF2EF
:106CC000801843FA05F359410EE0A5F120050EF1B5
:106CD000200E012A03FA0EFC28BF4CF0020C43FAE6
:106CE00005F3C01851EBE37101F0004507D54FF0F3
:106CF000000EDCF1000C7EEB00006EEB0101B1F543
:106D0000801F1BD3B1F5001F0CD349085FEA300088
:106D10004FEA3C0C04F101044FEA445212F5800F93
:106D200080F09A80BCF1004F08BF5FEA500C50F130
:106D3000000041EB045141EA050130BD5FEA4C0C13
:106D4000404141EB0101013C28BFB1F5801FE9D270
:106D500091F0000F04BF01460020B1FA81F308BF93
:106D60002033A3F10B03B3F120020CDA0C3208DD5F
:106D700002F1140CC2F10C0201FA0CF021FA02F13A
:106D80000CE002F11402D8BFC2F1200C01FA02F1AA
:106D900020FA0CFCDCBF41EA0C019040E41AA2BFCF
:106DA00001EB0451294330BD6FEA04041F3C1CDA97
:106DB0000C340EDC04F11404C4F1200220FA04F0B7
:106DC00001FA02F340EA030021FA04F345EA030161
:106DD00030BDC4F10C04C4F1200220FA02F001FA23
:106DE00004F340EA0300294630BD21FA04F02946A5
:106DF00030BD94F0000F83F4801306BF81F480113E
:106E00000134013D4EE77FEA645C18BF7FEA655CB0
:106E100029D094EA050F08BF90EA020F05D054EA82
:106E2000000C04BF1946104630BD91EA030F1EBF87
:106E30000021002030BD5FEA545C05D1400049418B
:106E400028BF41F0004130BD14F580043CBF01F57E
:106E5000801130BD01F0004545F0FE4141F4700164
:106E60004FF0000030BD7FEA645C1ABF194610463F
:106E70007FEA655C1CBF0B46024650EA013406BF40
:106E800052EA033591EA030F41F4002130BD00BFFF
:106E900090F0000F04BF0021704730B54FF48064BC
:106EA00004F132044FF000054FF0000150E700BF3D
:106EB00090F0000F04BF0021704730B54FF480649C
:106EC00004F1320410F0004548BF40424FF0000189
:106ED0003EE700BF42004FEAE2014FEA31014FEACC
:106EE00002701FBF12F07F4393F07F4F81F060511B
:106EF000704732F07F4208BF704793F07F4F04BF66
:106F000041F40021704730B54FF4607401F0004542
:106F100021F000411CE700BF50EA010208BF7047A2
:106F200030B54FF000050AE050EA010208BF704793
:106F300030B511F0004502D5404261EB41014FF4FC
:106F4000806404F132045FEA915C3FF4D8AE4FF004
:106F500003025FEADC0C18BF03325FEADC0C18BFE7
:106F6000033202EBDC02C2F1200300FA03FC20FA38
:106F700002F001FA03FE40EA0E0021FA02F1144485
:106F8000BDE600BF4FF0FF3C06E000BF4FF0010C34
:106F900002E000BF4FF0010C4DF804CD4FEA410C68
:106FA0007FEA6C5C4FEA430C18BF7FEA6C5C1BD035
:106FB00001B050EA410C0CBF52EA430C91EA030FB6
:106FC00002BF90EA020F0020704710F1000F91EA13
:106FD000030F58BF994208BF90422CBFD8176FEAE1
:106FE000E37040F0010070474FEA410C7FEA6C5CAF
:106FF00002D150EA013C07D14FEA430C7FEA6C5CB6
:10700000D6D152EA033CD3D05DF8040B704700BFE1
:107010008446104662468C461946634600E000BF2F
:1070200001B5FFF7B7FF002848BF10F1000F01BD01
:107030004DF808EDFFF7F4FF0CBF012000205DF8CC
:1070400008FB00BF4DF808EDFFF7EAFF34BF012051
:1070500000205DF808FB00BF4DF808EDFFF7E0FFEA
:1070600094BF012000205DF808FB00BF4DF808ED3B
:10707000FFF7CEFF94BF012000205DF808FB00BFA2
:107080004DF808EDFFF7C4FF34BF012000205DF884
:1070900008FB00BF002301461A46184600F04CB911
:1070A000024B1844407800F09700704735780B0089
:1070B0000A44914200F1FF3300D1704710B511F836
:1070C000014B03F8014F9142F9D110BD884210B530
:1070D00001EB020402D98442234607D8431EA14291
:1070E00008D011F8012B03F8012FF8E702440146FC
:1070F0008A4200D110BD13F8014D02F8014DF7E7A7
:1071000002440346934200D1704703F8011BF9E79C
:1071100038B5104B1D68AB6B0446B3B91820FDF7AA
:1071200047FE0246A86320B90B4B0C484221FDF7ED
:1071300067FE0B490B4BC0E900130B4B83600B231D
:10714000838100210120C2E90401AB6B00221C6194
:107150005A6138BD60E50320C5770B00DC770B0072
:107160000E33CDAB34126DE6ECDE0500C9B203463A
:1071700010F8012B1AB18A42F9D11846704700293C
:1071800018BF0023F9E710B50446FFF7EFFF18B961
:10719000204600F014F8204410BD10F8012B11F81F
:1071A000013B012A28BF9A42F7D0D01A7047034604
:1071B00011F8012B03F8012B002AF9D1704703467F
:1071C00013F8012B002AFBD1181A0138704710B5AB
:1071D0007AB103460139841813F8010B11F8012F15
:1071E000904201D1A34201D1801A10BD0028F3D1F1
:1071F000FAE71046F9E738B503460C4669B9BDE829
:107200003840FFF7B3BF431C054621461846FFF739
:10721000ADFF0028F7D1284638BD0025F5E700006E
:10722000012B2DE9F04701D0242B06D9FDF7E0FD15
:10723000162303600020BDE8F087DFF8E4C00D46A8
:107240002E4615F8014B14F80C7017F00807F7D10B
:107250002D2C32D12C780127B51C002B5BD0102BA4
:1072600009D1302C07D12C7804F0DF04582C4DD1F3
:107270006C781023023507F1004808F1FF384FF011
:10728000000CB8FBF3F9664603FB198AA4F1300E33
:10729000BEF1090F16D87446A34224DDBCF1000FDD
:1072A0001EDBB1451CD301D1A24519DB06FB034609
:1072B0004FF0010C15F8014BE8E72B2C04BF2C789C
:1072C000B51CCAE7A4F1410EBEF1190F01D8373C35
:1072D000E2E7A4F1610EBEF1190F04D8573CDBE7D9
:1072E0004FF0FF3CE6E7BCF1000F05DA2223036014
:1072F000464642B930469EE707B17642002AF9D0A9
:10730000BCF1000F00D0691E1160F3E73024002BA0
:10731000B1D10823AFE7302CA5D00A23ABE700BFDB
:1073200036780B0013460A46014602480068FFF70C
:1073300077BF00BF60E503202DE9F843DFF8B88090
:107340000646D8F800001F460D46914600F056F854
:10735000254B1C6834B9254C1C60254B13B11B68A8
:10736000C4F8883063681F2B07DDD8F8000000F0F0
:1073700047F84FF0FF30BDE8F8834EB3D4F88800EB
:1073800088B91C4B23B9D8F8000000F038F8F0E7B2
:107390004FF48470FDF70CFD0028F4D00023C0E901
:1073A0004033C4F88800636840F8239001229A4073
:1073B00000EB8301D0F800311343C0F80031022EF6
:1073C000C1F8807002BFD0F804311343C0F8043113
:1073D0006368D8F800005A1C0233626044F82350F6
:1073E00000F00EF80020C6E7E8E703205CE7032082
:1073F00000000000B14D0B00C4E50320704770474A
:107400007047000021400B005D400B0085400B00E1
:1074100089400B000000000043616C6C206F6E20FF
:1074200070757265207669727475616C0025733AA7
:107430002025642C2025642C20256C662C202573A7
:10744000004166746572206C6F6164696E670074D8
:10745000657374696E6720737973537461757321F2
:107460000041667465722075706461746500000087
:10747000000000000000000000000000000000000C
:10748000A5400B00CD400B000000000000000000F4
:1074900001410B0035410B0025610B00CF400B0073
:1074A0000000000000000000D9400B00ED400B0080
:1074B000C9450B005F460B00E1460B0000000000D1
:1074C0000000000091470B008F410B00C7410B00EB
:1074D00097470B00BF470B0025490B00BD490B0028
:1074E000000000000000000089450B008B450B00E8
:1074F000C9450B005F460B00E1460B00676F743A0D
:10750000206D616769633D25303878207665727338
:10751000696F6E3D253034782073697A653D25307A
:10752000347820686173683D25303878006578705C
:107530003A206D616769633D253038782076657241
:1075400073696F6E3D253034782073697A653D2507
:1075500030347820686173683D2530387800000049
:107560000000000000000000EB4E0B00E14E0B009D
:10757000D74E0B008D4E0B00CB4E0B00BF4E0B00B9
:107580007D640B0085640B00B34E0B00AB4E0B000B
:10759000A14E0B00974E0B00B5640B0000000000DD
:1075A00000000000834F0B00794F0B006F4F0B0062
:1075B000654F0B00594F0B004D4F0B007D640B00C6
:1075C00085640B00414F0B00394F0B002F4F0B0010
:1075D000254F0B00B5640B00000000000000000008
:1075E000A14F0B00EB4F0B00C34F0B00A34F0B0041
:1075F000CB4F0B00D34F0B00DB4F0B00E34F0B00C7
:107600000000000000000000C5500B00B5500B004A
:10761000B7500B00256400257500752530347800BF
:10762000626175640053657269616C0053657269CB
:10763000616C31004A534F4E53747265616D4C6FEB
:107640006748616E646C657200617070002530314E
:10765000307520005D20002C200028293A200020D1
:107660005B00636F6465203D2000256900646574DC
:1076700061696C73203D20000D0A006D0066006C8E
:107680006E00666E007400636F646500646574610B
:10769000696C0000000000000000000071550B0044
:1076A00097550B0055550B00D3510B0000000000FF
:1076B00000000000CD590B00E5590B0025610B00BF
:1076C000CF400B000000000000000000F9590B0043
:1076D0000D5A0B00C9620B005D550B000000000045
:1076E000000000006F550B00A5550B0089600B00D2
:1076F0005F550B0000000000000000006D550B00FE
:10770000B3550B0035590B00D5550B000000000098
:10771000000000003D640B0047640B0051640B0047
:107720005B640B0065640B0071640B007D640B00EF
:1077300085640B008D640B0099640B00A1640B0041
:10774000AB640B00B5640B0025592D256D2D256408
:107750005425483A254D3A2553257A0061736374C0
:10776000696D650000000000000000000D680B005E
:1077700079680B0051680B00A1650B0021680B00B4
:107780003D680B002F680B004B680B000F680B0067
:1077900013680B000000000000000000CB680B0025
:1077A00033690B0009690B00A1650B00FB680B0036
:1077B000CD680B00DD680B002D690B00ED680B0038
:1077C000C5680B00005245454E54206D616C6C6FCE
:1077D0006320737563636565646564002F746D7001
:1077E0002F6A656E6B696E732D4743432D31302DC3
:1077F000706970656C696E652D34385F3230323077
:10780000313132345F313630363138303633392F1A
:107810007372632F6E65776C69622F6E65776C6922
:10782000622F6C6962632F7374646C69622F72617A
:107830006E642E630000202020202020202020289D
:107840002828282820202020202020202020202018
:107850002020202020208810101010101010101050
:107860001010101010100404040404040404040490
:10787000101010101010104141414141410101010F
:1078800001010101010101010101010101010101E8
:1078900001101010101010424242424242020202F5
:1078A00002020202020202020202020202020202B8
:1078B0000210101010200000000000000000000066
:1078C00000000000000000000000000000000000B8
:1078D00000000000000000000000000000000000A8
:1078E0000000000000000000000000000000000098
:1078F0000000000000000000000000000000000088
:107900000000000000000000000000000000000077
:107910000000000000000000000000000000000067
:107920000000000000000000000000000000000057
:10793000000000000000000089440B007D4E0B0099
:10794000F54E0B008D4F0B0015610B008D650B0084
:10795000AD660B00D5670B00F9670B000000000057
:10796000040000001400000003000000474E550012
:107970007C9ADE56CB862BC6164029F554FEAE3DCA
:04798000FC7A5669CE
:0479840000000000FF
:10798800E4760B00FC760B005C770B0064E50320C3
:1079980000000000000000000000000000000000DF
:1079A80000000000000000000000000000000000CF
:1079B80000000000000000000000000000000000BF
:1079C80000000000000000000000000000000000AF
:1079D800000000000000000000000000000000009F
:1079E800000000000000000000000000000000008F
:0479F800ECE7032095
:1079FC00FFFFFFFF00000102030405060708090A48
:107A0C000B0C0D0E0F101112131415161718191A42
:087A1C001B1C1D1E1F20280089
:047A2400785634124A
:04000003B0004020E9
:00000001FF
