:02000002B0004C
:1040000000400B00347C0B00000006000D00050290
:084010000401A30F00000000F1
:04401800CC750B0058
:1040200009480A49884208B505D0094A824202D0A7
:10403000121A03F021F90748074A0021121A03F067
:1040400043F9014808BD00BFACE50320987B0B0095
:1040500020E6032020E60320EDE7032070B5074E9D
:10406000074C02F047F9A41BA4080025AC4200D17C
:1040700070BD56F8043B98470135F7E7487B0B00C5
:104080006C7B0B0000F060B808B500F089F8BDE863
:10409000084002F0E7B800F069BF00F067BF00F029
:1040A0006DBF000008B5034A03490C2000F09AFEDA
:1040B000FEE700BF854B0B00E0750B000078B0FAFF
:1040C00080F0400970470123037070477047006A11
:1040D0000368DB681847000010B5034B0360044613
:1040E00000F0F2FA204610BD54760B0010B50446DD
:1040F000FFF7F2FF20461021FFF7D1FF204610BD49
:104100000A4B10B50446036001F05EFA214601F047
:1041100096FC02F0FDF902F0EDF92046044B40F860
:10412000043B01F027FB204610BD00BF3C760B008E
:1041300024760B0010B50446FFF7E2FF2046242149
:10414000FFF7ADFF204610BD38B5002000F02AFD76
:1041500042F210750446002000F024FD001B61F1BE
:104160000001A84271F1000307D202F0D1F902F078
:10417000C4F910B900F0E2FEEDE702F0C9F902F06F
:10418000BCF94FF4FA6002F041F800F0CFF903688F
:104190001B689847BDE8384000F0D8BE000000001A
:1041A00010B52D4C00F0F6FC2368C01A42F20F73D4
:1041B000984249D900F0EEFC206000F0B7F903689E
:1041C0005B68984700F0B2F9244900F065FA00F006
:1041D000ADF9044600F0AAF900F0B8F9411C2046F8
:1041E00000F0C5F900F0A2F9044600F09FF900F0D4
:1041F000DBF980F00100C1B2204600F0E6F900F0E2
:1042000095F9044600F092F900F0FEF910A3D3E905
:10421000002351EC100B02F0E1FD41EC100B2046A5
:1042200000F012FA00F082F90D4900F030FA00F0C7
:104230007DF90C4900F030FA00F078F90368BDE828
:104240001040DB680121184710BD00BFAFF30080AC
:104250009A9999999999B93F2CE60320F5750B0025
:1042600003760B000C760B0070B5D0E900531426D2
:10427000044606FB0356AE4204D0284600F0FEFE7C
:104280001435F8E7206800F079FE204670BD8842BA
:10429000F8B504460D46164616D9904215D2A2F13D
:1042A0001406751AA1F114072C44B7421CD02CB186
:1042B0003146204600F04AFF337C2374304600F03C
:1042C000DDFE143E143CF0E70ED0B5420CD02CB10C
:1042D0002946204600F03AFF2B7C2374284600F044
:1042E000CDFE14351434F0E7F8BD2DE9F04100237C
:1042F000C0E9003383604F689F4204460E4623DDC9
:104300004FF0140808FB07F000F030FE0546D8B166
:10431000D4E9001208FB0212FFF7B9FF206800F091
:104320002DFE2560A760D6E9007308FB0378B84529
:1043300008D03946284600F023FF3B7C2B74143705
:104340001435F4E7736863602046BDE8F08100002F
:10435000F0B500218DB0012000F074FD274B284AF4
:104360009A600024C3E90044022000F05BFDCDE91F
:104370000044029402F0CCF8224D0646694603A898
:10438000FFF7B3FF2F4603A906A8FFF7AEFF1E4BAA
:1043900047F8043B06A909A8FFF7A7FF09AA0121CE
:1043A000384601F02FFC09A8FFF75EFF06A8FFF7CB
:1043B0005BFF164B2B602E6203A8FFF755FF144BD3
:1043C0002B6002F0A5F84FF4165102F08FF801F0BF
:1043D000FBF8294601F0ECFA6846FFF745FF02F0CA
:1043E000D1FC0C4D014623464FF40042284600F014
:1043F00077F9094B2B600DB0F0BD00BF20E603201C
:104400000000FFFF40E6032024760B0020780B001D
:104410003C760B0030E6032054760B0010B5044BBD
:1044200003600446406808B100F0CCFB204610BD94
:1044300030770B0010B50446FFF7F0FF20465821F7
:10444000FFF72DFE204610BD014800F053B900BF14
:1044500030E603200EB400B58CB00DAA4FF0200C4E
:1044600052F8041B0392CDE900120023016804AA4C
:104470001E20CDE904C300F0BDFC0CB05DF804EBD8
:1044800003B0704710B5036804460BB900F092FB07
:104490002068BDE8104000F09DBB38B504460430EC
:1044A000FFF7F0FF206A616A0368DD68D4E9022340
:1044B000A8476068BDE8384000F094BB38B50446B2
:1044C0000430FFF7DFFF206A616A03689D68D4E962
:1044D0000223A847A2682368D1885B6920469847D1
:1044E00018B9236820469B699847606800F07AFBFA
:1044F000012038BD00F12801816009494FF0300CDE
:10450000C0E903C1012181824FF47A71C16105497B
:104510000022C0E9081242608261034A02607047CB
:10452000739EA92030E6032084760B0010B5064C5C
:1045300023683BB95820FFF7AEFD034608B1FFF7EB
:10454000D9FF2360206810BD64E6032038B5044617
:104550000430FFF797FFE3686068043B0F2B86BFCA
:10456000A3681D69002500F03DFB284638BD38B51D
:10457000044604300D46FFF785FFE368043B0F2B2C
:104580000DD9A3681A69954209D01D612046A56816
:1045900000F030FAA860236820461B6998476068DD
:1045A000BDE8384000F01EBB38B504460430FFF7C4
:1045B00069FFE3686068013B132B86BFA3681D7D1C
:1045C000002500F00FFB284638BD38B504460430FE
:1045D0000D46FFF757FFE368013B132B0DD9A36886
:1045E0001A7DAA4209D01D752046A56800F002FA7E
:1045F000A860236820461B6998476068BDE838407A
:1046000000F0F0BA0000000010B504462DED028B5A
:104610000430FFF737FFE368083B172B0CD9A3687A
:1046200093ED068B606800F0DDFAB0EE480AF0EE1C
:10463000680ABDEC028B10BD9FED018BF2E700BF55
:104640000000000000000000F8B50446043057ECFC
:10465000106BFFF717FFE368083B172B12D9A5680B
:104660003046D5E90623394602F0C6FD50B9C5E902
:1046700006672046A56800F0BDF9A86023682046BB
:104680001B6998476068BDE8F84000F0ABBA0B467C
:104690000A22202100F0C6B930B587B000F14803E6
:1046A0000493D0E91045CDE9024590F83C300093E1
:1046B000836B03480A460349FFF7CCFE07B030BDC1
:1046C00090E6032068760B00704710B51021044671
:1046D000FFF7E5FC204610BD0368C9B29B68184788
:1046E00030B5034DC0E90223C0E9005130BD00BF21
:1046F000B0760B00406802F017B810B504460068A9
:1047000002F055F8204610BD2DE9F74304464068F5
:1047100001900D4616461F4602F040F8A7B1E16829
:10472000606841F0500102F032F8290A6068FFF732
:10473000D3FF29466068FFF7CFFF6068002102F0D1
:1047400029F848B1002400E0012401A8FFF7D5FFB3
:10475000204603B0BDE8F083202F217B6068B84677
:1047600028BF4FF020080123424641F0500101F0DC
:10477000F8FF02F007FB03681B6998474045E1DB3F
:1047800006EB080902F0FEFA03685B69984706F831
:10479000010B4E45F6D14544A7EB0807BEE72DE9CE
:1047A000F74F0446406801900E4690461D4601F0C2
:1047B000F5FF4FF00109B9F1000F2AD04DB3E168C0
:1047C000606841F0500101F0E2FF310A6068FFF7D4
:1047D00083FF60683146FFF77FFFA5F11E0A474659
:1047E000A6EB080B606817F8011B0368013D9B6886
:1047F000984755450BEB0706B84601D0002DF1D17F
:104800006068012101F0C6FF0028D7D04FF00009F1
:10481000D1E701A8FFF771FF484603B0BDE8F08F6C
:104820002DE9F0438BB00E46154680464068019056
:104830001C4601F0B3FFAE4229D2264425448CB178
:104840001E2C2746D8F8003028BF1E27F61BD3F8A9
:10485000089002AA3B4631464046ED1BC84748B97E
:10486000002400E0012401A8FFF747FF20460BB019
:10487000BDE8F083D8F8003002AAD3F80C9029469E
:104880003B464046C8470028EAD0E41BD7E7E9D9B1
:10489000002CE7D0D8F800301E2C274628BF1E2752
:1048A000D3F8089002AA3B4631464046C847002844
:1048B000D6D0D8F8003002AAD3F80C9029463B464F
:1048C0004046C8470028CBD03E443D44E41BDFE7C8
:1048D000704703685B68184710B58369044633B1B5
:1048E00031B1236820469B6898470023A36110BD1F
:1048F00000F050F9A369C01AE3699842F1D2F6E7D3
:1049000010B5C36904461BB100F044F9A06110BDA5
:104910000368BDE810409B68184700F063B90EB407
:1049200000B58CB00DAA4FF0200C52F8041B039276
:10493000CDE900120023016804AA0120CDE904C3D7
:1049400000F058FA0CB05DF804EB03B0704710B5F6
:1049500004460430FFF796FD2368E1685B69204652
:10496000984718B9236820469B6998476068FFF705
:10497000D4FF012010BD0000F0B521F00304184F52
:10498000184E194D0444A0420CD050F8043B7B4310
:104990004FEA734373435A404FEAF24202EB8202FA
:1049A0002A44F0E701F0030404440023A04204D0A9
:1049B00014F8015D45EA0323F8E709484343094831
:1049C0004FEA73434A4058435040084B80EA104036
:1049D0005843074B80EA5030584380EA1040F0BDFE
:1049E000512D9ECC9335871B646B54E66BCAEB85C7
:1049F00035AEB2C2F8B504460430FFF743FDA368F4
:104A000000229F689A60A668054AF1883046FFF741
:104A1000B3FFB76005466068FFF77FFF2846F8BD23
:104A20003F2A1C852DE9F0410446043090460D468E
:104A30001F46FFF727FDE268C8F101031344AB42AC
:104A40001FD3384602F09FFC40451AD2A668354471
:104A50002946384602F085FC88B1424600212846A6
:104A600002F032FC3946284602F085FC2046A56853
:104A7000FFF7C0FFA860236820461B6998470125FF
:104A800000E000256068FFF748FF2846BDE8F08198
:104A900073B50D460446FFF7ADFF0B2D064623D92F
:104AA000A3682269196891421FD19988A28A91420C
:104AB0001BD1D988AAB2914217D89A68824214D1E0
:104AC000E268AA4205D900215955E2680135AA4297
:104AD000FAD8D4E902322046DA80A568FFF78AFFC7
:104AE000A860012002B070BD9DB1A1680A6892B1B2
:104AF00088688B880190C988084800910849FFF7A9
:104B00000EFFCDE90056A38A226906490348FFF744
:104B100006FF0020E6E71046E4E700BF90E603202A
:104B2000C4760B00F5760B0038B50446C268806881
:104B3000002102F0C9FBA36822691A60A368A28A57
:104B40009A80D4E902322046DA80A568FFF752FF46
:104B5000A86038BD08B5024B1B689B68019308BD6F
:104B60006802030008B5024B1B68DB68019308BDAF
:104B70006802030008B5024B1B685B68019308BD1F
:104B80001802030008B5024B1B68DB68019308BDDF
:104B90001802030008B5024B1B685B69019308BD4E
:104BA0001802030008B5024B1B68DB6D019308BDBA
:104BB0001802030008B5024B1B685B6C019308BD2B
:104BC0004802030008B5024B1B689B6C019308BDAB
:104BD0004802030008B5024B1B68DB6C019308BD5B
:104BE0004802030008B5024B1B685B6D019308BDCA
:104BF0004802030008B5024B1B685B69019308BDBE
:104C00006402030008B5024B1B689B68019308BD52
:104C10003C02030008B5024B1B68DB68019308BD2A
:104C20003C02030008B5024B1B681B69019308BDD9
:104C30003C02030008B5024B1B685B69019308BD89
:104C40003C02030008B5024B1B689B69019308BD39
:104C50003C02030008B5024B1B68DB69019308BDE9
:104C60003C02030008B5024B1B689B6A019308BD18
:104C70003C02030008B5024B1B68DB6A019308BDC8
:104C80003C02030008B5024B1B681B6C019308BD76
:104C90003C02030008B5024B1B68DB68019308BDAA
:104CA0002802030008B5024B1B689B69019308BDED
:104CB0002802030008B5024B1B68DB69019308BD9D
:104CC0002802030008B5024B1B681B6A019308BD4C
:104CD0002802030008B5024B1B685B6A019308BDFC
:104CE0002802030008B5024B1B689B6A019308BDAC
:104CF0002802030008B5024B1B68DB6A019308BD5C
:104D00002802030008B5024B1B681B6B019308BD0A
:104D10002802030008B5024B1B681B6C019308BDF9
:104D20002802030008B5024B1B689B6C019308BD69
:104D30002802030008B5024B1B68DB6C019308BD19
:104D40002802030008B5024B1B681B6D019308BDC8
:104D50002802030008B5024B1B681B68019308BDBD
:104D60004C02030008B5024B1B685B68019308BD49
:104D70004C02030008B5024B1B689B68019308BDF9
:104D80004C02030008B5024B1B681B69019308BD68
:104D90004C02030008B5024B1B685B69019308BD18
:104DA0004C02030008B5024B1B689B69019308BDC8
:104DB0004C02030008B5024B1B68DB69019308BD78
:104DC0004C02030008B5024B1B681B6A019308BD27
:104DD0004C02030008B5024B1B689B6A019308BD97
:104DE0004C02030008B5024B1B685B6B019308BDC6
:104DF0006002030008B5024B1B685B6D019308BDA0
:104E00006002030008B5024B1B68DB6E019308BD0E
:104E10006002030008B5024B1B681B6F019308BDBD
:104E20006002030008B5024B1B685B68019308BD74
:104E30002002030008B5024B1B685B69019308BDA3
:104E40002002030008B5024B1B68DB6A019308BD12
:104E50002002030008B5034B1B68D3F88830019388
:104E600008BD00002002030008B5034B1B68D3F8FF
:104E70009430019308BD00002002030008B5024BE6
:104E80001B685B68019308BD4002030008B5024B34
:104E90001B689B68019308BD4002030008B5024BE4
:104EA0001B68DB68019308BD4002030008B5024B94
:104EB0001B681B69019308BD4002030008B5024B43
:104EC0001B685B69019308BD4002030008B5024BF3
:104ED0001B689B69019308BD4002030008B5024BA3
:104EE0001B68DB69019308BD4002030008B5024B53
:104EF0001B681B6A019308BD4002030008B5024B02
:104F00001B681B6B019308BD4002030008B5024BF0
:104F10001B685B6B019308BD4002030008B5024BA0
:104F20001B681B6C019308BD4002030008B5024BCF
:104F30001B685B6C019308BD4002030008B5024B7F
:104F40001B689B68019308BD4402030008B5024B2F
:104F50001B68DB68019308BD4402030008B5024BDF
:104F60001B68DB6B019308BD4402030008B5024BCC
:104F70001B681B68019308BD1C02030008B5024BA7
:104F80001B685B68019308BD1C02030008B5024B57
:104F90001B689B68019308BD1C02030008B5024B07
:104FA0001B685B6A019308BD1C02030008B5024B35
:104FB0001B68DB6B019308BD1C02030008B5024BA4
:104FC0001B681B6C019308BD1C02030008B5024B53
:104FD0001B685B6C019308BD1C0203000022406843
:104FE0001146FFF783BF002240681146FFF78EBFCE
:104FF00040680022FFF782BF4068002281F0010173
:10500000FFF76CBF002340681A461946FFF75EBFE2
:10501000002340681A461946FFF750BF0022406837
:105020001146FFF743BF002240681146FFF72EBF2D
:10503000406800220221FFF731BF002340681A4672
:10504000FFF71CBF024B03225A60024A1A607047E6
:1050500068E6032054770B00054B02221A60054BCB
:10506000054A9A600020C3E90000FFF7DBBE00BFDD
:105070007CE6032070E603200000FFFF10B5044625
:105080000068FFF77BFF204610BD10B5044600689E
:1050900008B1FFF773FF0023C4E90133236010BD9B
:1050A00038B504460D4600680131FFF76FFF10B1B7
:1050B000C4E90005012038BD10B50368044623B1DA
:1050C00043688B4201D3012010BD2046FFF7E8FF63
:1050D0000028F9D0A368002BF5D122681370F2E7FD
:1050E00037B50D46114601920446FFF7E5FF019AD8
:1050F00028B92046FFF7C9FF204603B030BDA260A3
:105100002946206802F0B8F82268A3680021D1542B
:10511000F2E738B5054600680C4668B16A688B68E6
:105120009A4207D3096802F026F9A368AB6000230E
:10513000A36038BDFFF722FF23682B6063686B60B4
:10514000A368AB600023C4E90033F1E710B5002386
:10515000C0E90033044683600373FFF7DAFF20469B
:1051600010BD884210B5044605D00B682BB18A6883
:105170001946FFF7B5FF204610BDFFF786FFFAE797
:1051800010B500230446C0E9003383600373FFF7C2
:10519000E8FF204610BD10B54368013B044643605C
:1051A00063B903689B689847A368013BA3602BB968
:1051B00023682046DB68BDE81040184710BD70B575
:1051C000D0E90053044605EB0316AE4204D028464E
:1051D000FFF754FF1035F8E72068FFF7CFFE2046B1
:1051E00070BD10B50446006808B1FFF7D4FF204633
:1051F00010BD0000024800230360FFF7DBBC00BFC6
:1052000080E60320F8B506460D468F180024BD42FF
:105210000CD0336815F8011B9B6830469847031E75
:1052200001DB1C44F3E7002C08BF1C462046F8BDF8
:1052300013B50446084659B1019102F0A4F8236859
:105240000199DB680246204602B0BDE810401847CD
:1052500002B010BD03689B68184738B50D2105469C
:10526000FFF7F8FF0A2104462846FFF7F3FF204422
:1052700038BD30B58BB00023012A8DF8243098BF9B
:105280000A2209AC0D46B1FBF2F101FB125303F007
:10529000FF03092B94BF30333733DBB2AA4204F843
:1052A000013DEFD92146FFF7C3FF0BB030BD2DE91B
:1052B000F04186B000AF05460E46381D1421144655
:1052C0003B60FFF76BFE13280ED8391D2846FFF709
:1052D000AFFF04461EB12846FFF7BFFF0444204637
:1052E0001837BD46BDE8F08100F1080323F007033D
:1052F000E846ADEB030D2246411C3B686846FFF7CC
:105300004DFE69462846FFF793FF0446C546E1E790
:1053100080680368DB6818477047084611B10B685E
:105320005B6818477047704770477047704738B5DB
:1053300004460D4600682E2102F009F82368C31ABE
:105340002B6023B1037803B1013023682060184635
:1053500038BD10B50C210446FEF7A1FE204610BD55
:1053600010B504210446FEF79AFE204610BD10B584
:1053700004210446FEF793FE204610BDFFF72ABC29
:1053800008B501F0EEFFB0FA80F0400908BD7047A3
:1053900010B50C4601F0BCF8844210D001F0B6FC08
:1053A000844205D101F0B2FCBDE8104001F07BB9A8
:1053B0002CB1236820465B68BDE81040184710BD3B
:1053C0000B6803604B68436013B15A6801325A603E
:1053D000704713B504460846019101F0D4FF0199C6
:1053E0000246204602B0BDE8104001F063BC13B590
:1053F00004460846019101F0C6FF23680199DB6865
:105400000246204602B0BDE81040184707B50368C1
:105410008DF80710DB6801220DF10701984703B0F2
:105420005DF804FB0EB403B503AB002153F8042B65
:10543000006A0193FFF73BFF02B05DF804EB03B095
:1054400070470A6802604A6842600022C0E902228E
:1054500010B502618C688460CC68C4600C698A6095
:10546000CA6004610A6110BD2DE9F74FD0E90084DC
:105470004FF0140A00930AFB04F4184BA4101746CB
:105480005C434546002C21DD66100AFB06F005EB67
:1054900000093A46B9F804B0285801915F4528BF81
:1054A0005A4601F078FF002801994FF001030BD113
:1054B0005F4503D1009A13703446E3E7FCD9A61B7D
:1054C00009F11405013EF7E7F9DBF5E7A5EB08055F
:1054D0000248AD10684303B0BDE8F08FCDCCCCCC12
:1054E0007FB50369057E019103B3F9B1002600F190
:1054F0000C04039603A901A8FFF719FF0146A8B100
:105500000DF10B03039A8DF80B602046FFF7ACFFFB
:105510009DF80B3053B12368142404FB0034083485
:1055200034F9023C002BA8BFDDB2E3E7284604B003
:1055300070BD000010B5094C2378BFF35B8FDB070B
:1055400009D42046FEF7BAFD28B12046FEF7BBFD80
:10555000034801F083FE034810BD00BF88E6032026
:1055600027530B00ACE5032010B5094C2378BFF39B
:105570005B8FDB0709D42046FEF7A0FD28B120464B
:10558000FEF7A1FD034801F069FE034810BD00BF0E
:105590008CE603208F530B00B0E5032038B50025BF
:1055A0000446C0E90055C0E904558560856140F8AE
:1055B000245FFFF7FFFAFFF7BDFFE061FFF7D4FFBD
:1055C00025732062204638BD10B50A4C2378BFF3FE
:1055D0005B8FDB070CD42046FEF770FD40B1064818
:1055E000FFF7DCFF2046FEF76EFD044801F036FEB3
:1055F000014810BD84E6032094E603201D5B0B00E8
:10560000024A034903480023FFF704BC01590B0079
:105610008D580B000D580B0000231A4619461846EA
:10562000FFF7F8BB37B58D6804466846FFF7C8FE3C
:105630006A462946204601F05DFA01A8FFF7D1FD30
:10564000204603B030BD37B5CD6804466846FFF745
:10565000B7FE6A462946204601F028FA01A8FFF75E
:10566000C0FD204603B030BD37B50D69044668461D
:10567000FFF7A6FE6A462946204601F0C0F901A8B8
:10568000FFF7AFFD204603B030BD000070B58AB013
:105690000D46014604A8FFF7C5FF144E04A801F00B
:1056A00041FAE8B104A96846FFF7CDFF02983146F8
:1056B000FFF766FE044610B12C1E18BF012401A896
:1056C000FFF78FFD002CE9D004A96846FFF7CCFF57
:1056D000684601F0CAF9286001A8FFF782FDDDE7FE
:1056E00005A8FFF77EFD0AB070BD00BF88770B00EC
:1056F00037B50C4620461349154601F032FE50B925
:1057000000F006FF4FF4165100F0F0FE03B0BDE8C4
:10571000304000F0FDBE0C49204601F022FE78B971
:105720004FF4165301A928460193FFF7AFFF01F08C
:10573000EDFA019900F0B4FF01F0E8FA03B030BDD2
:105740000020FBE78D770B0094770B0070B5D0E954
:1057500000531426044606FB0356AE4205D005F15D
:105760000800FFF7F3FF1435F7E72068FFF706FCA2
:10577000204670BD10B504460C30FFF7E7FF204609
:10578000FFF71DFD204610BD10B5044B044640F840
:10579000043BFFF7EFFF204610BD00BF24760B004F
:1057A00010B50446FFF7F0FF20462421FEF777FCF2
:1057B000204610BD10B5034B03600446FFF7E4FF1D
:1057C000204610BD38780B0010B50446FFF7F2FFF5
:1057D00020462421FEF763FC204610BD0022C0E9CC
:1057E000002210B582600C6804604C6844608C68CC
:1057F0000A604A6084608A6010BD10B50368044680
:105800001868FFF7EFF9204610BD00002DE9F04FB2
:1058100087B0804603931C4B5B68C3F3080389463B
:1058200016466BB9FFF7D0FE044600F12403406A28
:105830000593FFF7A3FD237B2BB105A8FFF7DDFF41
:1058400007B0BDE8F08F01232373D4E900535FFA5A
:1058500089F905EB830AAA4512D055F8047B314635
:10586000381DFFF73DFE8145F5D33B68039A009252
:10587000D3F808B04A46334641463846D847EAE7A7
:1058800000232373D9E700BF00ED00E02DE9F74FB7
:105890009B461A4B5B68C3F308038046894616464D
:1058A0006BB9FFF791FE044600F12403406A0193AF
:1058B000FFF764FD237B2BB101A8FFF79EFF03B028
:1058C000BDE8F08F01232373D4E90053F6B205EB52
:1058D000830A55450ED055F8047B5946381DFFF70D
:1058E000FFFD8642F5D33B684A46DB6841463846B1
:1058F0009847EEE700232373DEE700BF00ED00E0EA
:105900002DE9F341164B5B68C3F3080305460F46C8
:105910001BBBFFF759FE00F124030446406A0193C4
:10592000FFF72CFDD4E90063462406EB8308B0455D
:1059300009D101A8FFF761FFA542B4BF00200120F3
:1059400002B0BDE8F08156F8040B39460430FFF789
:10595000C7FD8442A8BF0446E9E70020F0E700BF86
:1059600000ED00E0F8B5D0E901539D4204460E4633
:105970000DDB6F1C002F006804DDB900FFF706FB8C
:1059800018B9F8BDFFF7FAFA00202060A760276871
:10599000626807EB85019200A2EB8502081D01F009
:1059A00079FC47F825606368013363600120E8E70C
:1059B00037B500F124030446406A01930D46FFF712
:1059C000DDFCD4E9003203EB8202934219460BD08E
:1059D0000968A94203F10403F7D101A8FFF70DFFFD
:1059E0000025284603B030BD29462046FFF7BAFF00
:1059F00005460028F1D06368012B01D1FFF700FEB6
:105A000001A8FFF7FAFEECE770B50446D0E9000202
:105A10000B4600EB820282420FD001461D6851F80E
:105A2000046BAE4207D1521A01F034FC6368013BAB
:105A30006360012070BD0846EDE70020FAE71FB55E
:105A400000F124030446406A01910393FFF796FC9A
:105A500001A92046FFF7D8FF18B163680BB9FFF71B
:105A6000DBFD03A8FFF7C9FE04B010BD70B5D0E997
:105A700004561823044603FB0656AE4215D005F122
:105A800010012046FFF7C0FF63680BB9FFF7C4FDA4
:105A9000E06929690368DB689847696919B1206A78
:105AA0000368DB6898471835E7E7D4E904531826FC
:105AB00006FB0356AE4204D02846FFF7DFFA18353E
:105AC000F8E70023636170BD73B50446FFF7A4FDDA
:105AD00004F12403606A0193FFF750FC2046FFF7AE
:105AE000C5FF01A8FFF789FE606A08B1FFF76AF8F1
:105AF000D4E90453182606FB0356AE4204D02846C8
:105B0000FFF7BCFA1835F8E72069FFF737FA206885
:105B1000FFF734FA204602B070BD00000148FFF7DD
:105B2000D3BF00BF94E603208842F8B504460D4673
:105B3000164615D9904214D2A2F11406751AA1F195
:105B400014072C44B7421AD01CB131462046FFF747
:105B500078FC06F10800FFF7F9FD143E143CF1E76C
:105B60000DD0B5420BD01CB129462046FFF769FC89
:105B700005F10800FFF7EAFD14351434F1E7F8BD2C
:105B80008842F8B504460D46164614D9904213D201
:105B9000A2F11006751AA1F110072C44B74218D0D3
:105BA0001CB131462046FFF7D1FA3046FFF766FABE
:105BB000103E103CF2E70CD0B5420AD01CB1294689
:105BC0002046FFF7C3FA2846FFF758FA103510347D
:105BD000F2E7F8BD70B50E1E054611DD3001FFF786
:105BE000C5F9044658B1D5E9001201EB0212FFF7DE
:105BF000C7FF2868FFF7C2F92C60AE60012070BDB6
:105C00000024F6E72DE9F04F904695B0002303916C
:105C1000D8F804100A9346229942C0E90033C0E93B
:105C20000233C0E90433CDE908330446027623DCAD
:105C3000D8E90057142303FB0757AF423BD029464E
:105C40000BA8FFF783FA0BA90FA8099EFFF77EFAAE
:105C5000DDE9091399421BDA089B099A03EB061642
:105C600003EB0212314606F11000FFF789FFEEB98F
:105C7000099B0133099311E008A8FFF7ABFF002847
:105C8000D6D108A8FFF79BFA204615B0BDE8F08FE3
:105C9000013108A8FFF79EFF0028DDD10FA8FFF70C
:105CA000EDF90BA8FFF7EAF91435C6E70FA930465E
:105CB000FFF74CFADCE70026CDE90B660D964FF0B6
:105CC0001409DDE908239E427CDA3301D358069398
:105CD0000BB90136F5E70023079309FB06F302939E
:105CE0000BAD07A906A8FFF722FB82460028F0D0DB
:105CF0004FF000038DF817300146079A0DF1170396
:105D00002846FFF7B1FB9DF817700190002F4AD18C
:105D1000BDF81C30ADF84030CDE911774FF6FF7378
:105D2000CDF83CA0ADF842301397D5E9013293424B
:105D300017DB03F1010ABAF1000F30DD09FB0AF0AD
:105D4000FFF714F9834660B3D5E9001209FB02128C
:105D5000FFF7EAFE2868FFF711F9C5F800B0C5F8AB
:105D600008A02B68019A09FB023A6A68514609FBB0
:105D700002320AF11400FFF7D7FEBAF1000F03D088
:105D80000FA95046FFF75DFB6B6801336B6011A8EC
:105D9000FFF7DCFC3FB10BA8FFF7D8FC71E7BB466F
:105DA000D8E70127F3E7019B2D6809FB0355069B04
:105DB0001B782BB9D8F80030029A13441B7CEB8077
:105DC00008358EE72168226062686360A3680992E3
:105DD0000A9A0A93E368A2600B9A0B932369E26024
:105DE0000C9A0C93636922610D9A0D93039B0891A1
:105DF00062612376CFE70000F0B5044687B00D4618
:105E00002646194668461746FEF76FFA0B4B46F8CA
:105E1000043B694603A8FEF768FA03AA39463046F0
:105E2000FFF7F0FE03A8FEF71FFA6846FEF71CFA1C
:105E3000034B23602046256207B0F0BD24760B009B
:105E400020780B00F0B50F4685B01D490A9C3846F6
:105E500016461D4601F085FAC0B9A4B1294601A82D
:105E6000FFF7BCFC1749242000F0B0FF054630B115
:105E700001AB32462146FFF7BFFF134B2B6001A851
:105E8000FEF7F2F92C46204605B0F0BD0F49384622
:105E900001F067FA90B9002CF5D0294601A8FFF768
:105EA0009DFC0849242000F091FF05460028E6D01B
:105EB00001AB32462146FFF79FFFE0E70024E2E70F
:105EC0009C770B00B1790B0038780B00A0770B00A2
:105ED000014B024A1A60704790E60320B1770B002D
:105EE0002DE9F047089DD0F8209004460E4617464D
:105EF000984600F00DFB81454CD02B79190704D54D
:105F00006A6954492046FFF78DFAB8F1000F0DD0A9
:105F10005B212046FFF77AFA41462046FFF767FAF1
:105F200023684D49DB680222204698472B79DA071F
:105F300023D5D5F808802F21404601F040FA08B15A
:105F400000F1010841462046FFF751FA2B799B07E3
:105F500008D53A212046FFF759FAEA683F4920461A
:105F6000FFF760FA2A79236812F0040FDB6814BF88
:105F70003B493C490222204698472B7958071DD5BA
:105F800029690B461A4613F8010B60B1202808D185
:105F90001946F7E7344800F04AFC0028ADD0BDE8C8
:105FA000F0872828EED12368521ADB6820469847EC
:105FB00023682E49DB680422204698470021384692
:105FC000FEF720FF01462046FFF711FA2368254916
:105FD000DB680222204698471EB131462046FFF773
:105FE00006FA2B7913F0300F2CD023682049DB6898
:105FF0000222204698472B79D9060AD523681D49E5
:10600000DB68072220469847AA691B492046FFF70C
:1060100009FA2B799A0611D5DB0605D523681049B4
:10602000DB6802222046984723681449DB68204633
:106030000A229847E9692046FFF7D9F95D212046F1
:10604000FFF7E4F923680E49DB6820460222BDE829
:10605000F0471847B5770B00BC770B00BF770B00F4
:10606000C2770B00C7770B0020E70320C5770B0032
:10607000CA770B00CD770B00D5770B00D8770B00D4
:10608000E3770B002DE9F04385B0D0F820900C9C0D
:1060900005460F4690461E4600F03AFA814505D166
:1060A000494800F0C4FB002840F08A802B6A474A28
:1060B00001924FF0000901A803938DF8089000F0B9
:1060C0005AFD49464046FEF79DFE41498046012261
:1060D00001A800F0DFFD4146FFF77BF93FB13D49E4
:1060E000012201A800F0D6FD3946FFF772F93EB152
:1060F0003949012201A800F0CDFD3146FFF769F9C9
:106100002379DF070ED5A6682F21304601F057F915
:1061100000B1461C3149012201A800F0BBFD314607
:10612000FFF757F923799E0707D52D49022201A8C9
:1061300000F0B0FDE16800F02BFD2379580714D57D
:10614000266933461F4613F8012B2AB1202A01D1B4
:106150001E46F7E7282AF5D12249022201A800F0BD
:1061600099FDBA1B314600F0A5FD2379190707D523
:106170001D49012201A800F08DFD616900F01AFDA2
:106180002379DA0608D5042218490DEB020000F045
:1061900081FDA16900F0FCFC23799B0607D5144919
:1061A000062201A800F076FDE169FFF712F901A8C7
:1061B00000F0CBFC286A0F4903680222DB6898478D
:1061C00005B0BDE8F08300BF20E7032008780B008E
:1061D00092770B00E6770B00447A0B00E8770B0010
:1061E000EA770B00ED770B00F0770B00F2770B00EE
:1061F000F7770B00E3770B00024B1A68024B1A602B
:10620000704700BFB4E50320BCE603200021FEF781
:1062100011BE0000014B00229A607047C0E60320C7
:10622000014B1860704700BFB8E5032008B50B4B61
:1062300043B100F06DF903681B699847002801DD40
:10624000AFF30080064B43B100F060FD03681B69AB
:106250009847002801DDAFF3008008BD0000000072
:106260000000000008B5FFF7E1FFFEF793FC014BCB
:10627000186008BD40E703200548064A064908B5EE
:10628000121A00F0F9FF054B054A1A6008BD00BF5D
:1062900000F4032004F40320947B0B0000F403209B
:1062A0001E1C279A07B5002300931A466FF077014A
:1062B000FEF7DAFD03B05DF804FB000007B5438884
:1062C0000A2B08D0502B0BD1094B1B684BB103B0E4
:1062D0005DF804EB1847FFF7E5FF03B05DF804FB3A
:1062E000002300931A466FF07701FEF7BDFDF4E737
:1062F000D4E6032010B512480021FEF767FE114BCB
:106300001A68114B9A42114B0CBF012200221A70DD
:1063100001D0FFF7B1FFFEF72DFC044600F0DCFFD3
:106320000B4B13B12046AFF3008000210848FEF765
:1063300015FEBDE8104007480021FEF78BBD00BFE9
:1063400021620B0000F403201E1C279AD0E60320D4
:1063500000000000BD620B00704710B51821044614
:10636000FDF79DFE204610BDF0B5037D062B8DB0D8
:106370000E4600F104074FF0000412D000F10805AA
:1063800015F8011D0A223046FEF773FFAF420444A0
:1063900019D0002CF4D02E213046FEF75BFF0444C8
:1063A000EEE72F236A4639460A208DF80040FEF7B3
:1063B00021FC684600F0E7FF33680246DB68694667
:1063C00030469847044620460DB0F0BD10B5054B49
:1063D0000446112240F8043B002100F075FF2046DE
:1063E00010BD00BF9C780B000346074A10B543F868
:1063F000042B01F1100251F8044B43F8044B914275
:10640000F9D10A781A7010BD9C780B0010B59DF870
:10641000084044EA032343EA024242EA01610423BA
:106420004160037510BD000007B5064B0360CB78D3
:1064300000938B784A780978FFF7E8FF03B05DF89E
:1064400004FB00BF9C780B00417470477047704795
:1064500008B50021007CFEF7A5FC40EAE07008BD0D
:1064600008B50121007CFEF79DFC40EAE07008BD04
:1064700008B5007CFEF78EFC20EAE07008BD08B588
:10648000007CFEF77FFC20EAE07008BD13B50446EF
:10649000007C0191FEF77EFC0028019901DC607C04
:1064A00020B1207CFEF786FC20EAE07002B010BD2F
:1064B000007CFEF787BC10B514210446FDF7EFFD04
:1064C000204610BD10B54FF47A73044608460021EB
:1064D000C4E90113044B2360012320746374114643
:1064E000FEF738FC204610BDB0780B00007C00227F
:1064F000FEF738BC007CFEF73DBC007CFEF76ABCB2
:1065000010B514220446002100F0DEFE204610BD26
:1065100010B50F4C88B003A8FFF7F2FF2178BFF346
:106520005B8F11F001010FD120460191FDF7C6FDEF
:10653000019948B103AA0748FFF7C4FF2046FDF7B9
:10654000C2FD054800F08AFE024808B010BD00BF39
:10655000D8E60320DCE603204D640B0000224068EF
:106560001146FEF7A3BC002240681146FEF7BEBCF0
:10657000002240681146FEF7C9BC40680022FEF7C1
:10658000BDBC4068002281F00101FEF7A7BC0023DA
:1065900040681A461946FEF799BC002340681A461F
:1065A0001946FEF78BBC002240681146FEF76EBC10
:1065B000406800220221FEF771BC002340681A46A1
:1065C000FEF75CBC084B10B5282422461846002173
:1065D00000F07AFE054B04804FF0FF324260042247
:1065E0005A60034A1A6010BDF8E60320F0E6032063
:1065F000E0780B0070474174704708B5007CFEF7E7
:1066000031FB20EAE07008BD08B5007CFEF70AFB0C
:1066100020EAE07008BD08B5007CFEF713FB40EAF5
:10662000E07008BD08B5007CFEF704FB40EAE070AE
:1066300008BD007CFEF70EBB37B5457C04462DB186
:10664000207C03B0BDE83040FEF7E4BA007C019145
:10665000FEF708FB00280199F2DC284603B030BDA4
:1066600010B514210446FDF71AFD204610BD0000A8
:1066700010B54FF47A730446084611460022C4E967
:106680000123044B2360012320746374FEF7FAFA9C
:10669000204610BD1C790B00007C0023FEF7EABAEF
:1066A0000022FFF7F9BF007CFEF7ACBA7047F8B5DF
:1066B000064615460C468F18BC4206D0336814F8BF
:1066C000011B9B6830469847F6E72846F8BD007CDA
:1066D0000022FEF7F7BA007C0021FEF7FBBA007C2F
:1066E0000021FEF7FFBA007C0021FEF703BB007C0F
:1066F0000021FEF707BB10B514210446FDF7CFFCBF
:10670000204610BD10B54FF47A73044608460021A8
:10671000C4E90113034B236020741146FEF7FAFA13
:10672000204610BD4C790B000023007C1A46194608
:10673000FEF7B0BA7FB500221423CDE90122ADF8EF
:1067400004300B788DF808304B680393CB680493C2
:10675000007C0B7A059301A9FEF7F4FA07B05DF807
:1067600004FB1FB5003B8DF800104FF0640103914E
:1067700018BF0123694601928DF80830FFF7DAFF50
:1067800005B05DF804FB007C0022FEF78BBAC9B2AD
:10679000FFF7F9BF007C0022FEF78CBA08B5002194
:1067A000007CFEF7BFFAB0FA80F0400908BD08B5DA
:1067B0000021007CFEF7BEFAB0FA80F0400908BD67
:1067C000002340681A46FEF759BB406800220221A8
:1067D000FEF764BB002240681146FEF757BB00225B
:1067E00040681146FEF762BB002340681A4619460E
:1067F000FEF764BB002340681A461946FEF766BBE5
:1068000040680021FEF78ABB40680021FEF78EBB7E
:106810004068002281F00101FEF760BB4068002261
:10682000FEF76CBB002240681146FEF76FBB0022EA
:1068300040681146FEF75ABB2DE9F04395B0144667
:106840000D460746FFF7C2FD00211C220DA800914E
:1068500000F03AFD40230C9320466B460CAA002121
:10686000FEF780F9044600284BD1024601216868F2
:10687000FEF71CFB0221804622466868FEF716FBE5
:10688000009E81462146002E3BD0002939D17368F5
:10689000022B03D00A2B11D0F669F4E7B8F1000FF0
:1068A000FAD0716906A8043107ADFFF7BDFD0FCD21
:1068B0003C1D0FC42B6823704146EDE7B9F1000F72
:1068C000EAD07469102201A800F0FEFC06238DF8BE
:1068D000143001AD04F108031834186859682A46C9
:1068E00003C20833A3421546F7D101A906A807AD94
:1068F000FFF77AFD0FCD3C1D0FC42B68237049466E
:10690000CAE70098FEF726F9384615B0BDE8F083CF
:10691000024B034A1A6000225A60704720E70320A6
:1069200074790B0000F11003012213F8101C0129E7
:10693000184608D153F8041C02EB4102013A03F156
:106940001003F2D17047022904BF53F8041C5218F7
:10695000F4E70EB4F0B588B000AF07F134051021AC
:1069600055F8042B7A6004462B467818FD60FEF734
:1069700015FB0F287A681AD900F1080323F00703E2
:106980006E46ADEB030D411C2B466846FD60FEF7DD
:1069900005FB021E04DD236869469B682046984774
:1069A000B5462037BD46BDE8F04003B0704700282B
:1069B000F7D0236802469B6807F1100120469847EC
:1069C000EFE738B50B6803604D6843689D420446A5
:1069D00008D015B16B6801336B60606808B1FEF7D1
:1069E000DAFB656038BD07B503688DF807109B6852
:1069F00001220DF10701984703B05DF804FB0B4637
:106A00001146002210B5C0E90022044683600BB98C
:106A1000204610BDFFF7D5FFFAE78368EBB11A787F
:106A2000032A1AD8DFE802F00417021B052070477A
:106A300002685B685268D05C2D2812D0A0F1300348
:106A4000092B0ED974280ED066280CD0A0F16E0345
:106A50005842584170470620704700207047042074
:106A60007047032070470220704710B50446FFF7B7
:106A7000D4FF02280ED0C31EDBB2012B14D822682B
:106A8000A36850685B68BDE810400A2200211844E2
:106A900000F02CBD2268A36852685B68D05CA0F14E
:106AA00074035842584110BD0020FCE738B500235C
:106AB000C0E9003304460E48C4E90203A9B10B78CB
:106AC000032B06D08BB9136858684B68C35C6E2BD8
:106AD00007D013684D6858688B6828445B1BA0601A
:106AE000E36011462046FFF76CFF204638BD00BF2B
:106AF000E5770B0038B500250B46C0E90055C0E925
:106B00000255C0E90455044611464BB11A78012AD2
:106B100006D103F11002DB6882604361FFF751FF89
:106B2000204638BD10B54369044663B18068E06013
:106B3000013B1030A0602061636113B1FFF7F2FEEA
:106B4000A060012000E0184610BD10B57D2104466C
:106B5000FFF749FF01232371204610BD08B50379D3
:106B6000012B02D0022B04D008BD2C21FFF73BFFE4
:106B7000FAE73A21FAE710B50446FFF7EFFF20469F
:106B80007B21FFF730FF00232371204610BD00005A
:106B900013B504460191FFF7E1FF2368019ADB6812
:106BA00003492046984701232046237102B010BDB7
:106BB000BF770B0013B504460191FFF7CFFF2368A1
:106BC000019ADB6803492046984701232046237138
:106BD00002B010BDA8790B002DE9F0470D46222127
:106BE00090460446FFF7FFFEDFF8A490A8442F4626
:106BF0004745BA463DD017F8016B222E06D05C2ED1
:106C000004D0304600F030FB0028F1D12368AAEB15
:106C100005029B682946204698475C212046FFF7DD
:106C2000E2FE0D2E0AD8072E1CD9A6F10803052B6B
:106C300018D8DFE803F00D0F11171315222E01D01D
:106C40005C2E0FD131462046FFF7CDFE3D46CFE703
:106C50006221F8E77421F6E76E21F4E76621F2E796
:106C60007221F0E723683246DB68494620469847A0
:106C7000ECE7BD4205D023687A1B9B682946204675
:106C8000984722212046FFF7AEFEBDE8F08700BFFF
:106C9000AB790B0013B50446CDE90021FFF75EFF89
:106CA0002046DDE90021FFF797FF022320462371EC
:106CB00002B010BD13B50446CDE90021FFF74EFF29
:106CC0002046DDE90021FFF787FF012320462371DD
:106CD00002B010BD7047000038B5044614252A469E
:106CE000002100F0F1FA258040250749258128463A
:106CF000258200F06DF804496060284600F068F8CD
:106D0000E060204638BD00BFB1790B0030B50E4DB4
:106D10002978BFF35B8F11F0010487B011D12846A9
:106D2000FDF7CCF968B101A8FFF7D6FF01AA21460B
:106D30000648FFF79DFC2846FDF7C5F9044800F01A
:106D40008DFA024807B030BD28E703202CE7032066
:106D5000D56C0B007047000038B52025142304467D
:106D60000360856005610649284600F031F8044952
:106D70006060284600F02CF8E060204638BD00BF77
:106D8000B1790B0030B50E4D2978BFF35B8F11F050
:106D9000010487B011D12846FDF790F968B101A828
:106DA000FFF7DAFF01AA21460648FFF7ABFC2846A9
:106DB000FDF789F9044800F051FA024807B030BDE8
:106DC00044E7032048E70320556D0B00FDF763B946
:106DD000FDF763B981F0004102E000BF83F000439A
:106DE00030B54FEA41044FEA430594EA050F08BF66
:106DF00090EA020F1FBF54EA000C55EA020C7FEA2A
:106E0000645C7FEA655C00F0E2804FEA5454D4EBA6
:106E10005555B8BF6D420CDD2C4480EA020281EA70
:106E2000030382EA000083EA010180EA020281EAA8
:106E30000303362D88BF30BD11F0004F4FEA0131FA
:106E40004FF4801C4CEA113102D0404261EB410109
:106E500013F0004F4FEA03334CEA133302D052428F
:106E600063EB430394EA050F00F0A780A4F101044B
:106E7000D5F1200E0DDB02FA0EFC22FA05F2801885
:106E800041F1000103FA0EF2801843FA05F359416B
:106E90000EE0A5F120050EF1200E012A03FA0EFCEA
:106EA00028BF4CF0020C43FA05F3C01851EBE37114
:106EB00001F0004507D54FF0000EDCF1000C7EEB31
:106EC00000006EEB0101B1F5801F1BD3B1F5001F6F
:106ED0000CD349085FEA30004FEA3C0C04F101048E
:106EE0004FEA445212F5800F80F09A80BCF1004FB7
:106EF00008BF5FEA500C50F1000041EB045141EA39
:106F0000050130BD5FEA4C0C404141EB0101013C01
:106F100028BFB1F5801FE9D291F0000F04BF0146F0
:106F20000020B1FA81F308BF2033A3F10B03B3F1C2
:106F300020020CDA0C3208DD02F1140CC2F10C0252
:106F400001FA0CF021FA02F10CE002F11402D8BFB0
:106F5000C2F1200C01FA02F120FA0CFCDCBF41EA7C
:106F60000C019040E41AA2BF01EB0451294330BD4B
:106F70006FEA04041F3C1CDA0C340EDC04F1140428
:106F8000C4F1200220FA04F001FA02F340EA0300FF
:106F900021FA04F345EA030130BDC4F10C04C4F145
:106FA000200220FA02F001FA04F340EA0300294625
:106FB00030BD21FA04F0294630BD94F0000F83F46F
:106FC000801306BF81F480110134013D4EE77FEA52
:106FD000645C18BF7FEA655C29D094EA050F08BF9E
:106FE00090EA020F05D054EA000C04BF194610467F
:106FF00030BD91EA030F1EBF0021002030BD5FEAC3
:10700000545C05D14000494128BF41F0004130BDEA
:1070100014F580043CBF01F5801130BD01F000453E
:1070200045F0FE4141F470014FF0000030BD7FEAB1
:10703000645C1ABF194610467FEA655C1CBF0B46AC
:10704000024650EA013406BF52EA033591EA030FC3
:1070500041F4002130BD00BF90F0000F04BF0021BB
:10706000704730B54FF4806404F132044FF00005EE
:107070004FF0000150E700BF90F0000F04BF002167
:10708000704730B54FF4806404F1320410F00045CD
:1070900048BF40424FF000013EE700BF42004FEAC8
:1070A000E2014FEA31014FEA02701FBF12F07F4345
:1070B00093F07F4F81F06051704732F07F4208BFFC
:1070C000704793F07F4F04BF41F40021704730B503
:1070D0004FF4607401F0004521F000411CE700BF4F
:1070E00050EA010208BF704730B54FF000050AE0D2
:1070F00050EA010208BF704730B511F0004502D5D3
:10710000404261EB41014FF4806404F132045FEAD4
:10711000915C3FF4D8AE4FF003025FEADC0C18BF7D
:1071200003325FEADC0C18BF033202EBDC02C2F16F
:10713000200300FA03FC20FA02F001FA03FE40EA01
:107140000E0021FA02F11444BDE600BF4FF0FF3CEF
:1071500006E000BF4FF0010C02E000BF4FF0010C51
:107160004DF804CD4FEA410C7FEA6C5C4FEA430CCA
:1071700018BF7FEA6C5C1BD001B050EA410C0CBF19
:1071800052EA430C91EA030F02BF90EA020F00207B
:10719000704710F1000F91EA030F58BF994208BFE2
:1071A00090422CBFD8176FEAE37040F0010070479F
:1071B0004FEA410C7FEA6C5C02D150EA013C07D1F6
:1071C0004FEA430C7FEA6C5CD6D152EA033CD3D041
:1071D0005DF8040B704700BF8446104662468C463B
:1071E0001946634600E000BF01B5FFF7B7FF00286E
:1071F00048BF10F1000F01BD4DF808EDFFF7F4FF97
:107200000CBF012000205DF808FB00BF4DF808ED21
:10721000FFF7EAFF34BF012000205DF808FB00BF44
:107220004DF808EDFFF7E0FF94BF012000205DF866
:1072300008FB00BF4DF808EDFFF7CEFF94BF01201B
:1072400000205DF808FB00BF4DF808EDFFF7C4FF14
:1072500034BF012000205DF808FB00BF0023014679
:107260001A46184600F04CB9024B1844407800F01A
:1072700097007047467A0B000A44914200F1FF33B1
:1072800000D1704710B511F8014B03F8014F91423E
:10729000F9D110BD884210B501EB020402D9844235
:1072A000234607D8431EA14208D011F8012B03F84A
:1072B000012FF8E7024401468A4200D110BD13F8BD
:1072C000014D02F8014DF7E702440346934200D115
:1072D000704703F8011BF9E738B5104B1D68AB6B1D
:1072E0000446B3B91820FDF741FE0246A86320B951
:1072F0000B4B0C484221FDF761FE0B490B4BC0E9DB
:1073000000130B4B83600B23838100210120C2E912
:107310000401AB6B00221C615A6138BDB8E5032043
:10732000B2790B00C9790B000E33CDAB34126DE688
:10733000ECDE0500C9B2034610F8012B1AB18A42EF
:10734000F9D118467047002918BF0023F9E710B596
:107350000446FFF7EFFF18B9204600F014F8204468
:1073600010BD10F8012B11F8013B012A28BF9A42E9
:10737000F7D0D01A7047034611F8012B03F8012B00
:10738000002AF9D17047034613F8012B002AFBD1DC
:10739000181A0138704710B57AB1034601398418BC
:1073A00013F8010B11F8012F904201D1A34201D132
:1073B000801A10BD0028F3D1FAE71046F9E738B576
:1073C00003460C4669B9BDE83840FFF7B3BF431C1C
:1073D000054621461846FFF7ADFF0028F7D128469D
:1073E00038BD0025F5E70000012B2DE9F04701D05D
:1073F000242B06D9FDF7DAFD162303600020BDE833
:10740000F087DFF8E4C00D462E4615F8014B14F85E
:107410000C7017F00807F7D12D2C32D12C780127EA
:10742000B51C002B5BD0102B09D1302C07D12C7848
:1074300004F0DF04582C4DD16C781023023507F18D
:10744000004808F1FF384FF0000CB8FBF3F966462E
:1074500003FB198AA4F1300EBEF1090F16D8744649
:10746000A34224DDBCF1000F1EDBB1451CD301D1CA
:10747000A24519DB06FB03464FF0010C15F8014B42
:10748000E8E72B2C04BF2C78B51CCAE7A4F1410E09
:10749000BEF1190F01D8373CE2E7A4F1610EBEF14D
:1074A000190F04D8573CDBE74FF0FF3CE6E7BCF18F
:1074B000000F05DA22230360464642B930469EE7B4
:1074C00007B17642002AF9D0BCF1000F00D0691E46
:1074D0001160F3E73024002BB1D10823AFE7302C43
:1074E000A5D00A23ABE700BF477A0B0013460A4634
:1074F000014602480068FFF777BF00BFB8E50320E8
:107500002DE9F843DFF8B8800646D8F800001F469A
:107510000D46914600F056F8254B1C6834B9254CB1
:107520001C60254B13B11B68C4F8883063681F2B9F
:1075300007DDD8F8000000F047F84FF0FF30BDE855
:10754000F8834EB3D4F8880088B91C4B23B9D8F817
:10755000000000F038F8F0E74FF48470FDF706FD06
:107560000028F4D00023C0E94033C4F888006368E1
:1075700040F8239001229A4000EB8301D0F80031BB
:107580001343C0F80031022EC1F8807002BFD0F85A
:1075900004311343C0F804316368D8F800005A1C62
:1075A0000233626044F8235000F00EF80020C6E772
:1075B000E8E703205CE70320000000006D4F0B00AC
:1075C0001CE60320704770477047000021400B0005
:1075D0005D400B0085400B0089400B00000000005F
:1075E00043616C6C206F6E207075726520766972D5
:1075F0007475616C006166746572206C6F6164699A
:107600006E670074657374696E67210061667465E6
:107610007220757064617465000000000000000055
:10762000000000000000000000000000A5400B006A
:10763000CD400B00000000000000000001410B00E5
:1076400035410B00E15E0B00CF400B000000000055
:1076500000000000D9400B00ED400B0009470B0073
:107660009F470B0021480B0025733A2025642C20EE
:1076700025642C20256C662C20257300000000005A
:107680000000000049440B00BD440B009B440B006C
:10769000D9480B0001490B00914A0B00294B0B0004
:1076A0001D440B0035440B000000000000000000EA
:1076B000C9460B00CB460B0009470B009F470B0048
:1076C00021480B00676F743A206D616769633D253F
:1076D0003038782076657273696F6E3D2530347866
:1076E0002073697A653D2530347820686173683D80
:1076F00025303878006578703A206D616769633DA0
:10770000253038782076657273696F6E3D25303488
:10771000782073697A653D25303478206861736814
:107720003D25303878000000000000000000000017
:10773000D3480B004F490B00D1480B00D9480B0030
:1077400001490B00914A0B00294B0B00000000007F
:10775000000000003B500B0031500B0027500B0085
:107760001D500B0011500B0005500B0001680B0061
:1077700009680B00F94F0B00F14F0B00E74F0B00AE
:10778000DD4F0B0039680B00626175640053657250
:1077900069616C0053657269616C31004A534F4EE8
:1077A00053747265616D4C6F6748616E646C65728D
:1077B0000061707000253031307520005D2000259B
:1077C00064002C200028293A2000205B00636F64AD
:1077D00065203D200025690064657461696C732033
:1077E0003D20000D0A006D0066006C6E00666E00A4
:1077F0007400636F64650064657461696C00000007
:1078000000000000000000002D530B0053530B003C
:1078100011530B0053690B00000000000000000032
:1078200089570B00A1570B00E15E0B00CF400B0006
:107830000000000000000000B5570B00C9570B0006
:1078400085600B0019530B000000000000000000D1
:107850002B530B0061530B00455E0B001B530B00B9
:10786000000000000000000029530B006F530B00C4
:10787000F1560B0091530B0025592D256D2D2564D4
:107880005425483A254D3A2553257A00617363748F
:10789000696D6500000000000000000069630B00D6
:1078A00059630B005B630B00000000000000000048
:1078B0004F640B00B7640B008D640B0005520B0086
:1078C0007F640B0051640B0061640B00B1640B001A
:1078D00071640B0049640B00000000000000000010
:1078E000BB650B00B1650B00A7650B005D650B0068
:1078F0009B650B008F650B0001680B0009680B008E
:1079000083650B007B650B0071650B0067650B00E1
:1079100039680B000000000000000000F5650B0056
:1079200061660B0039660B0005520B0009660B00FF
:1079300025660B0017660B0033660B00F7650B001E
:10794000FB650B000000000000000000AD660B00AE
:10795000F7660B00CF660B00AF660B00D7660B0017
:10796000DF660B00E7660B00EF660B00000000000F
:1079700000000000C1670B00CB670B00D5670B0050
:10798000DF670B00E9670B00F5670B0001680B0070
:1079900009680B0011680B001D680B0025680B00BF
:1079A0002F680B0039680B00257500752530347879
:1079B00000005245454E54206D616C6C6F6320731E
:1079C0007563636565646564002F6D6E742F776FF2
:1079D000726B73706163652F776F726B7370616325
:1079E000652F4743432D31302D706970656C696E8A
:1079F000652F6A656E6B696E732D4743432D313079
:107A00002D706970656C696E652D34385F32303267
:107A100030313132345F313630363138303634310E
:107A20002F7372632F6E65776C69622F6E65776C4A
:107A300069622F6C6962632F7374646C69622F7260
:107A4000616E642E63000020202020202020202052
:107A500028282828282020202020202020202020FE
:107A6000202020202020208810101010101010102E
:107A70001010101010101004040404040404040472
:107A800004101010101010104141414141410101FA
:107A900001010101010101010101010101010101D6
:107AA00001011010101010104242424242420202E4
:107AB00002020202020202020202020202020202A6
:107AC0000202101010102000000000000000000052
:107AD00000000000000000000000000000000000A6
:107AE0000000000000000000000000000000000096
:107AF0000000000000000000000000000000000086
:107B00000000000000000000000000000000000075
:107B10000000000000000000000000000000000065
:107B20000000000000000000000000000000000055
:107B30000000000000000000000000000000000045
:107B4000000000000000000051430B0045500B00F6
:107B500059500B00F5510B00D15E0B00F9610B0081
:107B600015620B00C5650B0011690B0000000000D9
:107B7000040000001400000003000000474E550000
:107B8000D24D162A2C717AADB84599F3070C796C51
:047B900086BFD125B6
:047B940000000000ED
:107B980050780B0068780B008C780B00BCE503204C
:107BA80000000000000000000000000000000000CD
:107BB80000000000000000000000000000000000BD
:107BC80000000000000000000000000000000000AD
:107BD800000000000000000000000000000000009D
:107BE800000000000000000000000000000000008D
:107BF800000000000000000000000000000000007D
:047C0800ECE7032082
:107C0C00FFFFFFFF00000102030405060708090A35
:107C1C000B0C0D0E0F101112131415161718191A30
:087C2C001B1C1D1E1F20280077
:047C34007856341238
:04000003B0004020E9
:00000001FF
